:10000000DDC200000CC300000AC3000008C30000EA
:1000100006C3000004C3000002C3000000C30000C8
:10002000FEC20000FCC20000FAC20000F8C20000DC
:10003000F6C20000F4C20000F2C20000F0C20000EC
:10004000EEC20000ECC20000EAC20000E8C20000FC
:10005000E6C20000E4C20000E2C200000C94550EAB
:10006000DEC20000DCC20000DAC20000D8C200001C
:10007000D6C20000D4C20000D2C20000D0C200002C
:10008000CEC20000CCC20000CAC20000C8C200003C
:10009000C6C20000C4C20000C2C20000C0C200004C
:1000A000BEC20000BCC20000BAC20000B8C200005C
:1000B000B6C20000B4C20000B2C20000B0C200006C
:1000C000AEC20000ACC20000AAC20000A8C200007C
:1000D000A6C20000A4C20000A2C20000A0C200008C
:1000E0009EC200003F3F0201510906000500414148
:1000F0007C1211127C00050042427F4949493600BA
:10010000050043433E4141412200050044447F41F4
:1001100041413E00050045457F49494941000500F0
:1001200046467F0909090100050047473E41494904
:100130003A00050048487F0808087F000500494943
:1001400000417F41000005004A4A304040403F00E6
:1001500005004B4B7F080814630005004C4C7F40A2
:100160004040400005004D4D7F060C067F00050015
:100170004E4E7F0408107F0005004F4F3E41414125
:100180003E00050050507F09090906000500515145
:100190003E4151617E00050052527F0919294600F7
:1001A00005005353264949493200050054540101C2
:1001B0007F010100050055553F4040403F000500CC
:1001C00056561F2040201F00050057573F4038401B
:1001D0003F0005005858631408146300050059597E
:1001E00007087008070005005A5A61514945430045
:1001F00005002D2D08080808080005002121000031
:100200005F00000005002E2E0040000000000300EB
:10021000313142427F40400005003232625149454F
:10022000420005003333224149493E000500343481
:100230001F107C101000050035354F494949310029
:10024000050036363E49494932000500373701017D
:10025000790503000500383836494949360005005C
:100260003939264949493E00050030303E41414177
:100270003E0005002B2B08083E08080005003A3A0E
:1002800000280000000003003D3D14141414140065
:1002900005002020000000000000020061612054E1
:1002A00054547800050062627F48484830000500D9
:1002B000636338444444280005006464205050506F
:1002C0007F00050065653854545448000500666693
:1002D000087E09010200050067674854545438003D
:1002E000050068687F0808087000050069694044D7
:1002F0007D40400005006A6A2040443D0000050042
:100300006B6B7F101028440005006C6C01017F406E
:10031000400005006D6D7C047C04780005006E6E65
:100320007C040404780005006F6F384444443800AE
:10033000050070707C141414080005007171081415
:1003400014147C00050072727C080404040005008B
:1003500073734854545424000500747402023F42DD
:100360004200050075753C4040207C000500767613
:100370001C2040201C00050077777C2070207C002A
:1003800005007878442810284400050079794C50FD
:1003900050503C0005007A7A4464544C44000500F7
:1003A0005B5B007F4141000005005D5D0041417FD6
:1003B000000005007B7B08083641410005007D7D7B
:1003C00041413608080005002828001C2241000091
:1003D000050029290041221C0000050040403E4143
:1003E0005D551E0005002323143E143E1400050035
:1003F00024242C2A7F2A12000500252526160834DD
:10040000320005005E5E04020102040005005F5F29
:100410004040404040000500272707000000000042
:100420000100222200070007000005003B3B0040BE
:100430007636000005002F2F20100804020005006A
:100440005C5C02040810200005003C3C00102844BD
:10045000000005003E3E00442810000005002A2A46
:10046000120C3F0C12000500606001020000000049
:1004700002007E7E02010302010005002626304AAA
:10048000452A102806000A0A0000000000000000AB
:100490000D0D0000000000000000000021002400FD
:1004A00027002A002D003000330001010000040164
:1004B00007010A0100002200250028002B002E0061
:1004C0003100340002010000050108010B010000A9
:1004D00020002300260029002C002F0032000001FC
:1004E00000000301060109010505050507050808C7
:1004F0000808020202020A0A0808040404040101AE
:1005000001010101010103030303030303030407C2
:1005100007070C0C0C0C0C0C0C0C02020202060659
:100520000606060606060B0B0B0B0B0B0B0B01024C
:1005300010202008081020401020408002010201F5
:1005400008040201010204081020408080402010AD
:100550000804020180040201804020100804020106
:10056000080402010102040810204080010204086E
:100570001020408000000A0B02090C0D0E08070332
:100580000401000000000000000000000000000066
:10059000000000000000000000000000000000005B
:1005A0001211100000000000000000000000000018
:1005B000000000000000000000000A1011241FBE0F
:1005C000CFEFD1E2DEBFCDBF00E00CBF15E0A0E071
:1005D000B2E0EEECF1E200E00BBF02C007900D923A
:1005E000A831B107D9F725E0A8E1B5E001C01D9217
:1005F000AA34B207E1F712E0CEEDD2E000E006C087
:1006000021970109802FFE010E94DD10CD3DD10709
:1006100080E00807A9F70E949F0E0C94E510F0CC2B
:10062000FC018081918101969183808313821282E3
:10063000069710F0118210820895AF92BF92CF9268
:10064000DF92EF92FF920F931F93CF93DF936C0192
:100650007B018B01040F151FEB015E01AE18BF0873
:10066000C017D10759F06991D601ED91FC91019025
:10067000F081E02DC6011995892B79F7C501DF912D
:10068000CF911F910F91FF90EF90DF90CF90BF908F
:10069000AF9008958150823108F05AC0E82FF0E001
:1006A0008827EA5AFC4F8F4F0C94DD1076037A03AB
:1006B00068036E037203A8037D03830387038D031E
:1006C000910395039B039F03A803A303A903AD0311
:1006D000809180008F7780938000089580918000C2
:1006E0008F7DF9CF80918000877FF5CF84B58F779C
:1006F00084BD089584B58F7DFBCF8091B0008F7746
:100700008093B00008958091B0008F7DF9CF8091E3
:1007100090008F77809390000895809190008F7D56
:10072000F9CF80919000877FF5CF8091A0008F77DF
:100730008093A00008958091A0008F7DF9CF8091D3
:10074000A000877FF5CF809120018F7780932001D3
:100750000895809120018F7DF9CF80912001877FBE
:10076000F5CFCF93DF93282F30E0F901EC58FA4F03
:100770008491F901E25DFA4FD491F901E851FB4F00
:10078000C491CC2399F0811185DFEC2FF0E0EE0FBE
:10079000FF1FE253FB4FA591B491EC91ED2381E053
:1007A00090E009F480E0DF91CF91089580E090E03F
:1007B000FACF1F93CF93DF93282F30E0F901EC5845
:1007C000FA4F8491F901E25DFA4FD491F901E851B1
:1007D000FB4FC491CC23A1F0162F81115BDFEC2FCE
:1007E000F0E0EE0FFF1FEC54FB4FA591B4918FB7D3
:1007F000F894EC91111108C0D095DE23DC938FBFE3
:10080000DF91CF911F910895DE2BF8CFCF93DF9327
:1008100090E0FC01E25DFA4F249188519B4FFC016E
:1008200084918823D1F090E0880F991FFC01E6564F
:10083000FB4FA591B491FC01EC54FB4FC591D491B1
:1008400061110EC09FB7F8948C91E22FE0958E2332
:100850008C932881E223E8839FBFDF91CF91089595
:100860008FB7F894EC91E22BEC938FBFF6CF3FB7A4
:10087000F89480911D0590911E05A0911F05B091DF
:10088000200526B5A89B05C02F3F19F00196A11D94
:10089000B11D3FBFBA2FA92F982F8827BC01CD01CA
:1008A000620F711D811D911D42E0660F771F881F29
:1008B000991F4A95D1F708958F929F92AF92BF9258
:1008C000CF92DF92EF92FF924B015C01D0DF6B0180
:1008D0007C01CDDF6C197D098E099F09683E73404C
:1008E00081059105B0F321E0821A9108A108B108B1
:1008F00088EEC80E83E0D81EE11CF11C811491041F
:10090000A104B10431F7FF90EF90DF90CF90BF903A
:10091000AF909F908F900895089590E080E00895A3
:10092000EF92FF920F931F93CF93DF93E82EF62E53
:10093000C7E0D0E0042F10E0B8010C2E02C075957E
:1009400067950A94E2F761708E2D33DF61E08F2D99
:1009500030DF60E08F2D2DDF219770F7DF91CF9191
:100960001F910F91FF90EF900895CF93DF93CDE209
:10097000D5E09885EC81FD8120819095922390832C
:100980009E81E881F9812081909592239083482F60
:100990006A858985C5DF8E81E881F9819081892BFF
:1009A0008083DF91CF9108951F93CF93DF93EC0164
:1009B000162F60E08E81FDDE412F6C858A85B0DFC9
:1009C00061E08E81DF91CF911F91F3CE1F93CF9382
:1009D000DF93EC01162F60E08885EBDE612FCE01FE
:1009E000DF91CF911F91E0CF0F931F93CF93DF93B0
:1009F000EC01062F142F688B798B4E875F8760E29E
:100A0000E5DF60E8600FCE01E1DF60E4610FCE0159
:100A1000DF91CF911F910F91D9CFCF93DF9361E0F9
:100A200080914005C6DEC9EFD1E060E088E395E043
:100A3000BBDF2197D1F750E040E070E060E088E351
:100A400095E0DF91CF91D0CFFC0101900020E9F734
:100A50003197AF01481B590BBC0188E395E0EDCD00
:100A6000CF92DF92EF92FF920F931F93CF93DF937A
:100A7000EC0161E087E0CADE60E086E0C7DE61E0AD
:100A800085E0C4DE60E084E0C1DE61E083E0BEDEDC
:100A900060E082E0BBDE61E08EE1B8DE60E08CE128
:100AA000B5DE61E08AE1B2DE60E084E2AFDE61E003
:100AB00082E2ACDE60E080E2A9DE61E087E079DE20
:100AC00086E04FDE7C0101E010E0892B11F010E0A0
:100AD00000E060E087E06DDE86E043DE019761F5CF
:100AE000EF2851F52097B1F502E010E061E085E0D4
:100AF00060DE84E036DEF12CE12C892B29F40F5FD7
:100B00001F4FEE24E394F12C60E085E052DE84E098
:100B100028DE68012FEFC21AD20A019719F4EA946D
:100B2000EF2811F1209759F189E492E08DDF60ED13
:100B300077E080E090E021C00F5F1F4F2097B1F277
:100B40008FE192E081DF60ED77E080E090E0B4DE5D
:100B500064DFCCCF8CE092E077DF68EE73E080E07A
:100B600090E0AADE5ADFC0CF209749F086E392E0FA
:100B70006BDF68EE73E080E090E09EDE4EDF61E0C8
:100B800083E017DE82E0EDDD892BF1F4680122E0DD
:100B9000C20ED11C01E010E060E083E00ADE82E0DA
:100BA000E0DD76012FEFE21AF20A019719F4013025
:100BB000110569F02097B1F083E792E045DF60ED21
:100BC00077E080E090E00CC010E000E0E5CF2097F7
:100BD00049F080E692E038DF68EE73E080E090E074
:100BE0006BDE1BDF61E08EE1E4DD8CE1BADD892B99
:100BF000F1F4760182E0E80EF11CCC24C394D12CF0
:100C000060E08EE1D6DD8CE1ACDD87010F5F1F4F28
:100C1000019719F4CA94CD2869F02097B1F08DE9B5
:100C200092E012DF60ED77E080E090E00CC0D12C24
:100C3000C12CE6CF209749F08AE892E005DF68EE04
:100C400073E080E090E038DEE8DE61E08AE1B1DD6B
:100C500084E287DDD12CC12C892B31F487010E5F12
:100C60001F4FCC24C394D12C60E08AE1A2DD84E242
:100C700078DD78012FEFE21AF20A019719F4CA948D
:100C8000CD2851F0209799F087EC92E0DDDE60ED01
:100C900077E080E090E009C0209749F084EB92E093
:100CA000D3DE68EE73E080E090E006DEB6DE61E061
:100CB00082E27FDD80E255DD892BD1F4780122E0EC
:100CC000E20EF11C01E010E060E082E272DD80E201
:100CD00048DD019719F40130110569F0CD2BB1F011
:100CE00081EF92E0B1DE60ED77E080E090E00CC053
:100CF00010E000E0E9CFCD2B49F08EED92E0A4DECC
:100D000068EE73E080E090E0D7DD87DE85E0E816EE
:100D1000F10431F081E090E0909322058093210569
:100D2000DF91CF911F910F91FF90EF90DF90CF90C7
:100D30000895EF92FF920F931F93CF93DF938C014F
:100D400060E087E063DD61E086E060DD61E085E032
:100D50005DDD60E084E05ADD61E083E057DD61E065
:100D600082E054DD60E08EE151DD61E08CE14EDD3A
:100D700061E08AE14BDD60E084E248DD61E082E22F
:100D800045DD61E080E242DD61E085E012DD61E0A9
:100D900086E00FDD87E0E5DC31E020E0892B09F01B
:100DA00030E0C32FD22F61E085E003DD60E086E014
:100DB00000DD87E0D6DC892B09F4219660E085E030
:100DC000F8DC61E086E0F5DC87E0CBDC892B09F418
:100DD000219660E085E0EDDC60E086E0EADC87E01B
:100DE000C0DC019709F051C0C330D10509F04DC0F6
:100DF0000115110509F057C0C4E0D0E061E082E0C0
:100E0000D8DC61E083E0D5DC84E0ABDCF12CE12CC4
:100E1000892B21F42196EE24E394F12C61E082E009
:100E2000C8DC60E083E0C5DC84E09BDC892B21F436
:100E30008FEFE81AF80A219660E082E0BADC61E000
:100E400083E0B7DC84E08DDC892B21F48FEFE81A96
:100E5000F80A219660E082E0ACDC60E083E0A9DC87
:100E600084E07FDC019721F483E0E816F10429F1A6
:100E70000115110541F185E493E0E6DD60ED77E0D1
:100E800080E090E019DDC9DD1EC00115110509F4EF
:100E9000B5CF8BE193E0D8DD60ED77E080E090E0C6
:100EA0000BDDBBDDABCF88E093E0CEDD68EE73E019
:100EB00080E090E001DDB1DD9FCF219682E393E0F9
:100EC00001151105D1F661E08AE173DC61E08CE186
:100ED00070DC8EE146DCF12CE12C892B21F421968B
:100EE000EE24E394F12C61E08AE163DC60E08CE1C4
:100EF00060DC8EE136DC892B21F48FEFE81AF80AEA
:100F0000219660E08AE155DC61E08CE152DC8EE103
:100F100028DC892B21F48FEFE81AF80A219660E08B
:100F20008AE147DC60E08CE144DC8EE11ADC019769
:100F300021F483E0E816F10469F00115110581F050
:100F40008FE693E081DD60ED77E080E090E0B4DC57
:100F500064DD06C021968CE593E00115110591F73B
:100F600061E080E226DC61E082E223DC84E2F9DBFE
:100F7000F12CE12C892B21F42196EE24E394F12C21
:100F800061E080E216DC60E082E213DC84E2E9DB0F
:100F9000892B21F48FEFE81AF80A219660E080E2AD
:100FA00008DC61E082E205DC84E2DBDB892B21F4F2
:100FB0008FEFE81AF80A219660E080E2FADB60E041
:100FC00082E2F7DB84E2CDDB019721F483E0E816CF
:100FD000F10461F0012B79F089E993E035DD60EDF2
:100FE00077E080E090E068DC18DD05C0219686E8B7
:100FF00093E0012B99F7CB30D1056CF081E090E0C4
:101000009093280580932705DF91CF911F910F9131
:10101000FF90EF9008952A97B9F310922805109247
:101020002705F2CFCF92DF92EF92FF920F931F939B
:10103000CF93DF936C0161E087E0BBDB61E086E08A
:10104000B8DB85E08EDB31E020E0892B09F030E071
:10105000032F122F61E087E0ACDB60E086E0A9DBC4
:1010600085E07FDB019711F40F5F1F4F60E087E0A1
:10107000A0DB61E086E09DDB85E073DB019711F486
:101080000F5F1F4F60E087E094DB60E086E091DB5C
:1010900085E067DB892B11F40F5F1F4FC114D1046A
:1010A00069F0033011050CF409C180EB93E0CCDC4E
:1010B00068EE73E080E090E0FFDBAFDC61E084E0AD
:1010C00078DB61E083E075DB82E04BDBE801F12C4B
:1010D000E12C892B21F42196EE24E394F12C61E09C
:1010E00084E067DB60E083E064DB82E03ADB019769
:1010F00021F48FEFE81AF80A219660E084E059DBCA
:1011000061E083E056DB82E02CDB019721F48FEF76
:10111000E81AF80A219660E084E04BDB60E083E0A7
:1011200048DB82E01EDB892B21F48FEFE81AF80AF6
:101130002196C114D10471F083E0E816F1040CF497
:10114000C5C08AED93E080DC60ED77E080E090E060
:10115000B3DB63DC61E08EE12CDB61E08CE129DB59
:101160008AE1FFDAF12CE12C892B21F42196EE247F
:10117000E394F12C61E08EE11CDB60E08CE119DB93
:101180008AE1EFDA019721F48FEFE81AF80A219645
:1011900060E08EE10EDB61E08CE10BDB8AE1E1DAFD
:1011A000019721F48FEFE81AF80A219660E08EE1AA
:1011B00000DB60E08CE1FDDA8AE1D3DA892B21F4EF
:1011C0008FEFE81AF80A2196C114D10471F083E078
:1011D000E816F1040CF47DC084E094E035DC60EDA9
:1011E00077E080E090E068DB18DC61E084E2E1DA3F
:1011F00061E082E2DEDA80E2B4DA892B09F421963A
:1012000061E084E203DB61E082E200DB60E080E237
:10121000FDDA61E084E2CDDA60E082E2CADA80E2FF
:10122000A0DA019751F421968EE294E00DDC60ED96
:1012300077E080E090E040DBF0DB60E084E2B9DA68
:1012400061E082E2B6DA80E28CDA019751F421960D
:1012500086E394E0F9DB60ED77E080E090E02CDB62
:10126000DCDB60E084E2A5DA60E082E2A2DA80E220
:1012700078DA892B09F42196CD2871F08DE394E07A
:101280000330110514F480E594E0DEDB60ED77E0D7
:1012900080E090E011DBC1DBCC30D105ECF081E0E7
:1012A00090E09093240580932305DF91CF911F91C7
:1012B0000F91FF90EF90DF90CF90089583EC93E033
:1012C000C3DB60ED77E080E090E0F6CE8DEE93E05A
:1012D0003ACF87E194E082CF2B9739F3109224051F
:1012E00010922305E2CFEF92FF920F931F93CF93BB
:1012F000DF938C0161E087E05CDA61E086E059DA37
:1013000085E02FDA31E020E0019709F030E0C32FCB
:10131000D22F61E087E04DDA60E086E04ADA85E0CE
:1013200020DA892B09F4219660E087E042DA61E057
:1013300086E03FDA85E015DA892B09F4219660E032
:1013400087E037DA60E086E034DA85E00ADA892B74
:1013500091F4C330D105D9F40115110549F088E69F
:1013600094E072DB68EE73E080E090E0A5DA55DB94
:10137000C4E0D0E00CC00115110549F08CE794E001
:1013800063DB60ED77E080E090E096DA46DB61E0D9
:1013900084E00FDA61E083E00CDA82E0E2D97C01DC
:1013A00081E0E816F10409F0C5C0219661E084E00F
:1013B00000DA60E083E0FDD982E0D3D9892B21F403
:1013C0008FEFE81AF80A219660E084E0F2D961E034
:1013D00083E0EFD982E0C5D9892B21F48FEFE81A99
:1013E000F80A219660E084E0E4D960E083E0E1D986
:1013F00082E0B7D9892B09F0A0C083E0E816F10498
:1014000039F4219684E994E00115110509F09BC097
:1014100061E08EE1CED961E08CE1CBD98AE1A1D93E
:101420007C0181E0E816F10409F095C0219661E0A5
:101430008EE1BFD960E08CE1BCD98AE192D9892BD9
:1014400021F48FEFE81AF80A219660E08EE1B1D915
:1014500061E08CE1AED98AE184D9892B21F48FEF48
:10146000E81AF80A219660E08EE1A3D960E08CE1E9
:10147000A0D98AE176D9892B09F070C083E0E816FB
:10148000F10439F4219680EC94E00115110509F07E
:101490006BC061E084E28DD961E082E28AD980E2AA
:1014A00060D97C0181E0E816F10409F065C021965D
:1014B00061E084E27ED960E082E27BD980E251D9AA
:1014C000892B21F48FEFE81AF80A219660E084E274
:1014D00070D961E082E26DD980E243D9892B21F491
:1014E0008FEFE81AF80A219660E084E262D960E0A2
:1014F00082E25FD980E235D9892B09F040C083E0D0
:10150000E816F10431F421968CEE94E0012B09F0F9
:101510003AC0CB30D1050CF43EC081E090E090930E
:101520002A0580932905DF91CF911F910F91FF909C
:10153000EF900895F12CE12C39CF0115110509F434
:1015400067CF88EA94E080DA60ED77E080E090E0B1
:10155000B3D963DA5DCFF12CE12C69CF0115110508
:1015600009F497CF84ED94E06FDA60ED77E080E0E6
:1015700090E0A2D952DA8DCFF12CE12C99CF012B3A
:1015800041F280E095E060DA60ED77E080E090E0A5
:1015900093D943DABECF2A9709F4C5CF10922A0512
:1015A00010922905C0CFEF92FF920F931F93CF9314
:1015B000DF937C0161E087E0FCD861E086E0F9D848
:1015C00085E0CFD831E020E0019709F030E0C32F6B
:1015D000D22F61E087E0EDD860E086E0EAD885E0D0
:1015E000C0D8019709F4219660E087E0E2D861E075
:1015F00086E0DFD885E0B5D8019709F4219661E04F
:1016000087E004D961E086E001D960E085E0FED89A
:1016100060E087E0CED860E086E0CBD885E0A1D856
:10162000892B09F42196E114F10469F0C330D10546
:101630000CF40AC189E093E007DA68EE73E080E019
:1016400090E03AD9EAD961E084E0B3D861E083E080
:10165000B0D882E086D88C01019709F0FDC02196B0
:1016600061E084E0A6D860E083E0A3D882E079D886
:10167000019719F40F5F1F4F219660E084E099D81D
:1016800061E083E096D882E06CD8019719F40F5F8F
:101690001F4F219661E084E0B9D861E083E0B6D8BD
:1016A00060E082E0B3D860E084E083D860E083E06B
:1016B00080D882E056D8892B19F40F5F1F4F2196EE
:1016C000E114F10471F083E393E00330110514F4A5
:1016D00086E493E0B9D960ED77E080E090E0ECD863
:1016E0009CD961E08EE165D861E08CE162D88AE145
:1016F00038D88C01019709F0B2C0219660E08EE1E4
:1017000058D861E08CE155D88AE12BD8019719F4BB
:101710000F5F1F4F219661E08EE14BD860E08CE1B6
:1017200048D88AE11ED8019719F40F5F1F4F219600
:1017300061E08EE16BD861E08CE168D860E08AE11D
:1017400065D860E08EE135D860E08CE132D88AE17E
:1017500008D8892B19F40F5F1F4F2196E114F1046B
:1017600071F08DE593E00330110514F480E793E008
:101770006BD960ED77E080E090E09ED84ED961E0D3
:1017800084E217D861E082E214D880E20E94B103BB
:101790008C01019709F066C0219661E084E209D8C6
:1017A00060E082E206D880E20E94B103019719F45A
:1017B0000F5F1F4F219660E084E20E94D90361E031
:1017C00082E20E94D90380E20E94B103019719F4DA
:1017D0000F5F1F4F219661E084E218D861E082E23A
:1017E00015D860E080E212D860E084E20E94D9035C
:1017F00060E082E20E94D90380E20E94B103892B5B
:1018000019F40F5F1F4F2196EF2871F087E893E0DE
:101810000330110514F48AE993E016D960ED77E0FE
:1018200080E090E049D8F9D8CB30D105F4F081E0E0
:1018300090E09093260580932505DF91CF911F912D
:101840000F91FF90EF9008958CE193E0FDD860ED4B
:1018500077E080E090E0F5CE10E000E001CF10E00E
:1018600000E04CCF10E000E098CF2A9731F31092BF
:10187000260510922505E1CFEF92FF920F931F935B
:10188000CF93DF937C0161E087E00E94D90361E0A0
:1018900086E00E94D90385E00E94B10331E020E098
:1018A000892B09F030E0C32FD22F61E087E00E943E
:1018B000D90360E086E00E94D90385E00E94B1036D
:1018C000019709F4219660E087E00E94D90361E066
:1018D00086E00E94D90385E00E94B103019709F4D4
:1018E000219660E087E00E94D90360E086E00E94D4
:1018F000D90385E00E94B103019709F42196E11410
:10190000F10471F0C330D1050CF403C187E694E013
:101910009BD868EE73E080E090E00E945C047DD884
:1019200061E084E00E94D90361E083E00E94D90372
:1019300082E00E94B10310E000E0892B19F42196A7
:1019400001E010E061E084E00E94D90360E083E000
:101950000E94D90382E00E94B103019719F40F5F3E
:101960001F4F219660E084E00E94D90361E083E08C
:101970000E94D90382E00E94B103019719F40F5F1E
:101980001F4F219660E084E00E94D90360E083E06D
:101990000E94D90382E00E94B103019719F40F5FFE
:1019A0001F4F2196E114F10479F083E994E00330AC
:1019B000110514F487EA94E047D860ED77E080E001
:1019C00090E00E945C0429D861E08EE10E94D90376
:1019D00061E08CE10E94D9038AE10E94B10310E02A
:1019E00000E0892B19F4219601E010E060E08EE11F
:1019F0000E94D90361E08CE10E94D9038AE10E9430
:101A0000B103019719F40F5F1F4F219661E08EE13A
:101A10000E94D90360E08CE10E94D9038AE10E9410
:101A2000B103019719F40F5F1F4F219660E08EE11B
:101A30000E94D90360E08CE10E94D9038AE10E94F0
:101A4000B103019709F06EC00330110509F06AC0B7
:101A50002196E114F10461F08FEB94E00E942405DB
:101A600060ED77E080E090E00E945C040E940D054C
:101A700061E084E20E94D90361E082E20E94D9031E
:101A800080E20E94B10310E000E0892B19F4219656
:101A900001E010E061E084E20E94D90360E082E2AC
:101AA0000E94D90380E20E94B103019719F40F5FED
:101AB0001F4F219660E084E20E94D90361E082E238
:101AC0000E94D90380E20E94B103019719F40F5FCD
:101AD0001F4F219660E084E20E94D90360E082E219
:101AE0000E94D90380E20E94B103019719F40330E8
:101AF0001105F9F0EF2811F18FEF94E00E94240511
:101B000060ED77E080E090E00E945C040E940D05AB
:101B100015C08BE794E00E94240560ED77E080E03B
:101B200090E0FBCEE114F10409F4A2CF83ED94E040
:101B300095CF21968BEE94E0EF2801F7CC30D105BC
:101B40006CF081E090E090932C0580932B05DF9161
:101B5000CF911F910F91FF90EF9008952B97B9F3BC
:101B600010922C0510922B05F2CF8F929F92AF927C
:101B7000BF92CF92DF92EF92FF920F931F93CF937A
:101B8000DF9300D000D000D01F92CDB7DEB78C011C
:101B9000D62E5C018EE0A80EB11C9AE0691318C025
:101BA000C5010E94100381E090E02A960FB6F894D8
:101BB000DEBF0FBECDBFDF91CF911F910F91FF9080
:101BC000EF90DF90CF90BF90AF909F908F9008954F
:101BD000F8014685578560897189C8010E94F4041F
:101BE00061E0F80180850E94D90384EEE82E80E050
:101BF000F82E4AE050E0B701CE010196D5D28A8195
:101C0000D81679F0FAE0EF0EF11C8AE9E81684E0C4
:101C1000F80679F74AE050E064EE70E0CE010196F4
:101C2000C3D2C984DA84F801808991898C0D9D1D05
:101C30008535910580F0C5010E941003F8014685A5
:101C4000578560897189C8010E94F40461E0F80138
:101C500080850E94D903CE0101967C014C018C0C39
:101C60009D1C8E149F0449F0F7016281C8010E94F7
:101C7000D404FFEFEF1AFF0AF4CF60E0C8010E941E
:101C8000D404F801808991890196918B808B8435E9
:101C9000910530F0C5010E941003F801118A108AE5
:101CA000F1E0CF1AD10868F77ECF1F920F920FB6DE
:101CB0000F9211242F933F938F939F93AF93BF93D2
:101CC0008091190590911A05A0911B05B0911C05F2
:101CD0003091180523E0230F2D3758F50196A11DEB
:101CE000B11D209318058093190590931A05A093B0
:101CF0001B05B0931C0580911D0590911E05A091B8
:101D00001F05B09120050196A11DB11D80931D05F1
:101D100090931E05A0931F05B0932005BF91AF912E
:101D20009F918F913F912F910F900FBE0F901F9019
:101D3000189526E8230F0296A11DB11DD2CF7894E5
:101D400084B5826084BD84B5816084BD85B58260C0
:101D500085BD85B5816085BD80916E008160809371
:101D60006E001092810080918100826080938100DA
:101D700080918100816080938100809180008160EA
:101D8000809380008091B10084608093B100809145
:101D9000B00081608093B000809191008260809358
:101DA00091008091910081608093910080919000DA
:101DB0008160809390008091A10082608093A10057
:101DC0008091A10081608093A1008091A00081603A
:101DD0008093A000809121018260809321018091F5
:101DE0002101816080932101809120018160809395
:101DF000200180917A00846080937A0080917A003B
:101E0000826080937A0080917A00816080937A006A
:101E100080917A00806880937A001092C10061E01E
:101E200087E00E94060461E086E00E94060460E00C
:101E300085E00E94060461E084E00E94060461E0FF
:101E400083E00E94060460E082E00E94060461E0F4
:101E50008EE10E94060461E08CE10E94060460E0CD
:101E60008AE10E94060461E084E20E94060461E0C7
:101E700082E20E94060460E080E20E94060461E0C3
:101E800081E00E94060461E080E30E94060460E0B5
:101E900081E00E94D90361E080E30E94D90361E000
:101EA00080E40E94060461E08FE30E94060461E082
:101EB0008EE30E94060461E080E40E94D90361E0A1
:101EC0008FE30E94D90360E08EE30E94D90360E0B3
:101ED00087E00E94D90360E086E00E94D90385E094
:101EE0000E94B10331E020E0892B09F030E0C32FDC
:101EF000D22F60E084E00E94D90360E083E00E947A
:101F0000D90382E00E94B103892B09F4219660E095
:101F10008EE10E94D90360E08CE10E94D9038AE13E
:101F20000E94B103892B09F4219660E084E20E94AB
:101F3000D90360E082E20E94D90380E20E94B103EB
:101F4000892B09F42196229764F490E080E094DCD8
:101F500080912B0590912C05892B19F081E090E060
:101F60008BDC90E080E0BFD98091290590912A0513
:101F7000892B19F081E090E0B6D990E080E00E94D2
:101F800099068091270590912805892B21F081E001
:101F900090E00E9499068091270590912805892B51
:101FA00061F490E080E0FFDA8091250590912605AC
:101FB000892B19F081E090E0F6DA80912B05909161
:101FC0002C05892B01F590E080E02CD88091230529
:101FD00090912405892B19F081E090E023D880911D
:101FE000270590912805892B71F490E080E00E94EC
:101FF00030058091210590912205892B21F081E007
:1020000090E00E943005C0E0D0E02097F1F30E94FC
:102010000000FBCFCF93DF93EDE2F5E0E491F0E039
:10202000EE0FFF1FEC54FB4F85919491CDE2D5E06C
:1020300099838883ECE2F5E0E491F0E0EE0FFF1F76
:10204000EC54FB4F859194919B838A83EBE2F5E0FE
:10205000E491F0E0EE0FFF1FEC54FB4F859194915B
:102060009D838C83E3E7F5E0E491EE83E2E7F5E01E
:10207000E491EF83E1E7F5E0E491E88761E085E44E
:102080000E94060461E084E40E94060461E083E4A7
:102090000E94060461E082E40E94060461E081E49B
:1020A0000E94060482E4898781E48A878F81EA811D
:1020B000FB8190818095892380838F81EA81FB81D8
:1020C0009081892B808381E20E94B50489EB0E9474
:1020D000B50484E00E94B50484E10E94B5048CE05C
:1020E0000E94B50480E20E94B5048CE00E94B50411
:1020F000C8E3D5E01B821A8284E092E0998388834A
:102100001F861E86198A188A85E490E09D838C8339
:1021100084E490E09F838E8383E490E099878887AE
:1021200082E490E09B878A8781E490E09D878C879A
:1021300061E085E40E94060461E084E40E940604F4
:1021400061E083E40E94060461E082E40E940604E8
:1021500061E081E40E9406041F861E86198A188A9F
:1021600060E08C810E94D90361E08C810E94D903D8
:102170000E940D0560E2CE010E94E6046CE0CE01F3
:102180000E94E60461E2CE010E94E60464E1CE0111
:102190000E94E60461E2CE010E94E6046CEBCE01EF
:1021A000DF91CF910C94E604FB01DC0102C00590A5
:1021B0000D9241505040D8F70895EE0FFF1F881F31
:0E21C0008BBF0790F691E02D1994F894FFCF95
:1021CE0000000000B50D1D038D048C046E6F74208D
:1021DE0067617465203120574F524B494E47006E50
:1021EE006F7420676174652031206E6F7420574FB5
:1021FE00524B494E47006E6F7420676174652032F2
:10220E0020574F524B494E47006E6F7420676174D2
:10221E00652032206E6F7420574F524B494E470047
:10222E006E6F742067617465203320574F524B498F
:10223E004E47006E6F7420676174652033206E6F99
:10224E007420574F524B494E47006E6F7420676192
:10225E007465203420574F524B494E47006E6F74B1
:10226E0020676174652034206E6F7420574F524B77
:10227E00494E47006E6F7420676174652035205794
:10228E004F524B494E47006E6F7420676174652044
:10229E0035206E6F7420574F524B494E47006E6F6C
:1022AE00742067617465203620574F524B494E4754
:1022BE00006E6F7420676174652036206E6F742017
:1022CE00574F524B494E47004E4F5220676174652F
:1022DE0020312D574F524B494E47004E4F522067DB
:1022EE0061746520312D6E6F7420574F524B494EDD
:1022FE0047004E4F52206761746520322D574F5262
:10230E004B494E47004E4F52206761746520322D67
:10231E006E6F7420574F524B494E47004E4F52200E
:10232E006761746520332D574F524B494E47004E0F
:10233E004F52206761746520332D6E6F7420574F96
:10234E00524B494E47004E4F522067617465203400
:10235E002D574F524B494E47004E4F5220676174D6
:10236E006520342D6E6F7420574F524B494E4700E7
:10237E00584F52206761746520312D574F524B498B
:10238E004E4700584F52206761746520312D6E6F95
:10239E007420574F524B494E4700584F5220676199
:1023AE00746520322D574F524B494E4700584F52AD
:1023BE00206761746520322D6E6F7420574F524B1B
:1023CE00494E4700584F52206761746520332D5790
:1023DE004F524B494E4700584F522067617465204B
:1023EE00332D6E6F7420574F524B494E4700583164
:1023FE002031204E470058312032204700584F528E
:10240E00206761746520342D574F524B494E47005B
:10241E00584F52206761746520342D6E6F742057AB
:10242E004F524B494E47004E414E442067617465F2
:10243E0020312D574F524B494E47004E414E4420AE
:10244E006761746520312D6E6F7420574F524B4962
:10245E004E47004E414E44206761746520322D5721
:10246E004F524B494E47004E414E442067617465B2
:10247E0020322D6E6F7420574F524B494E47004EEF
:10248E00414E44206761746520332D574F524B499E
:10249E004E47004E414E44206761746520332D6EC9
:1024AE006F7420574F524B494E47006E616E642039
:1024BE006761746520342D574F524B494E47004E7D
:1024CE00414E44206761746520342D6E6F74205721
:0824DE004F524B494E4700002C
:00000001FF
