:10000000DDC200000CC300000AC3000008C30000EA
:1000100006C3000004C3000002C3000000C30000C8
:10002000FEC20000FCC20000FAC20000F8C20000DC
:10003000F6C20000F4C20000F2C20000F0C20000EC
:10004000EEC20000ECC20000EAC20000E8C20000FC
:10005000E6C20000E4C20000E2C200000C94680F97
:10006000DEC20000DCC20000DAC20000D8C200001C
:10007000D6C20000D4C20000D2C20000D0C200002C
:10008000CEC20000CCC20000CAC20000C8C200003C
:10009000C6C20000C4C20000C2C20000C0C200004C
:1000A000BEC20000BCC20000BAC20000B8C200005C
:1000B000B6C20000B4C20000B2C20000B0C200006C
:1000C000AEC20000ACC20000AAC20000A8C200007C
:1000D000A6C20000A4C20000A2C20000A0C200008C
:1000E0009EC200003F3F0201510906000500414148
:1000F0007C1211127C00050042427F4949493600BA
:10010000050043433E4141412200050044447F41F4
:1001100041413E00050045457F49494941000500F0
:1001200046467F0909090100050047473E41494904
:100130003A00050048487F0808087F000500494943
:1001400000417F41000005004A4A304040403F00E6
:1001500005004B4B7F080814630005004C4C7F40A2
:100160004040400005004D4D7F060C067F00050015
:100170004E4E7F0408107F0005004F4F3E41414125
:100180003E00050050507F09090906000500515145
:100190003E4151617E00050052527F0919294600F7
:1001A00005005353264949493200050054540101C2
:1001B0007F010100050055553F4040403F000500CC
:1001C00056561F2040201F00050057573F4038401B
:1001D0003F0005005858631408146300050059597E
:1001E00007087008070005005A5A61514945430045
:1001F00005002D2D08080808080005002121000031
:100200005F00000005002E2E0040000000000300EB
:10021000313142427F40400005003232625149454F
:10022000420005003333224149493E000500343481
:100230001F107C101000050035354F494949310029
:10024000050036363E49494932000500373701017D
:10025000790503000500383836494949360005005C
:100260003939264949493E00050030303E41414177
:100270003E0005002B2B08083E08080005003A3A0E
:1002800000280000000003003D3D14141414140065
:1002900005002020000000000000020061612054E1
:1002A00054547800050062627F48484830000500D9
:1002B000636338444444280005006464205050506F
:1002C0007F00050065653854545448000500666693
:1002D000087E09010200050067674854545438003D
:1002E000050068687F0808087000050069694044D7
:1002F0007D40400005006A6A2040443D0000050042
:100300006B6B7F101028440005006C6C01017F406E
:10031000400005006D6D7C047C04780005006E6E65
:100320007C040404780005006F6F384444443800AE
:10033000050070707C141414080005007171081415
:1003400014147C00050072727C080404040005008B
:1003500073734854545424000500747402023F42DD
:100360004200050075753C4040207C000500767613
:100370001C2040201C00050077777C2070207C002A
:1003800005007878442810284400050079794C50FD
:1003900050503C0005007A7A4464544C44000500F7
:1003A0005B5B007F4141000005005D5D0041417FD6
:1003B000000005007B7B08083641410005007D7D7B
:1003C00041413608080005002828001C2241000091
:1003D000050029290041221C0000050040403E4143
:1003E0005D551E0005002323143E143E1400050035
:1003F00024242C2A7F2A12000500252526160834DD
:10040000320005005E5E04020102040005005F5F29
:100410004040404040000500272707000000000042
:100420000100222200070007000005003B3B0040BE
:100430007636000005002F2F20100804020005006A
:100440005C5C02040810200005003C3C00102844BD
:10045000000005003E3E00442810000005002A2A46
:10046000120C3F0C12000500606001020000000049
:1004700002007E7E02010302010005002626304AAA
:10048000452A102806000A0A0000000000000000AB
:100490000D0D0000000000000000000021002400FD
:1004A00027002A002D003000330001010000040164
:1004B00007010A0100002200250028002B002E0061
:1004C0003100340002010000050108010B010000A9
:1004D00020002300260029002C002F0032000001FC
:1004E00000000301060109010505050507050808C7
:1004F0000808020202020A0A0808040404040101AE
:1005000001010101010103030303030303030407C2
:1005100007070C0C0C0C0C0C0C0C02020202060659
:100520000606060606060B0B0B0B0B0B0B0B01024C
:1005300010202008081020401020408002010201F5
:1005400008040201010204081020408080402010AD
:100550000804020180040201804020100804020106
:10056000080402010102040810204080010204086E
:100570001020408000000A0B02090C0D0E08070332
:100580000401000000000000000000000000000066
:10059000000000000000000000000000000000005B
:1005A0001211100000000000000000000000000018
:1005B00000000000000000000000211111241FBEF7
:1005C000CFEFD1E2DEBFCDBF00E00CBF15E0A0E071
:1005D000B2E0ECEFF3E200E00BBF02C007900D9237
:1005E000A830B107D9F725E0A8E0B5E001C01D9219
:1005F000AA33B207E1F712E0CEEDD2E000E006C088
:1006000021970109802FFE010E94F411CD3DD107F1
:1006100080E00807A9F70E94B20F0C94FC11F0CCFF
:10062000FC018081918101969183808313821282E3
:10063000069710F0118210820895AF92BF92CF9268
:10064000DF92EF92FF920F931F93CF93DF936C0192
:100650007B018B01040F151FEB015E01AE18BF0873
:10066000C017D10759F06991D601ED91FC91019025
:10067000F081E02DC6011995892B79F7C501DF912D
:10068000CF911F910F91FF90EF90DF90CF90BF908F
:10069000AF9008958150823108F05AC0E82FF0E001
:1006A0008827EA5AFC4F8F4F0C94F41176037A0393
:1006B00068036E037203A8037D03830387038D031E
:1006C000910395039B039F03A803A303A903AD0311
:1006D000809180008F7780938000089580918000C2
:1006E0008F7DF9CF80918000877FF5CF84B58F779C
:1006F00084BD089584B58F7DFBCF8091B0008F7746
:100700008093B00008958091B0008F7DF9CF8091E3
:1007100090008F77809390000895809190008F7D56
:10072000F9CF80919000877FF5CF8091A0008F77DF
:100730008093A00008958091A0008F7DF9CF8091D3
:10074000A000877FF5CF809120018F7780932001D3
:100750000895809120018F7DF9CF80912001877FBE
:10076000F5CFCF93DF93282F30E0F901EC58FA4F03
:100770008491F901E25DFA4FD491F901E851FB4F00
:10078000C491CC2399F0811185DFEC2FF0E0EE0FBE
:10079000FF1FE253FB4FA591B491EC91ED2381E053
:1007A00090E009F480E0DF91CF91089580E090E03F
:1007B000FACF1F93CF93DF93282F30E0F901EC5845
:1007C000FA4F8491F901E25DFA4FD491F901E851B1
:1007D000FB4FC491CC23A1F0162F81115BDFEC2FCE
:1007E000F0E0EE0FFF1FEC54FB4FA591B4918FB7D3
:1007F000F894EC91111108C0D095DE23DC938FBFE3
:10080000DF91CF911F910895DE2BF8CFCF93DF9327
:1008100090E0FC01E25DFA4F249188519B4FFC016E
:1008200084918823D1F090E0880F991FFC01E6564F
:10083000FB4FA591B491FC01EC54FB4FC591D491B1
:1008400061110EC09FB7F8948C91E22FE0958E2332
:100850008C932881E223E8839FBFDF91CF91089595
:100860008FB7F894EC91E22BEC938FBFF6CF3FB7A4
:10087000F89480910D0590910E05A0910F05B0910F
:10088000100526B5A89B05C02F3F19F00196A11DA4
:10089000B11D3FBFBA2FA92F982F8827BC01CD01CA
:1008A000620F711D811D911D42E0660F771F881F29
:1008B000991F4A95D1F708958F929F92AF92BF9258
:1008C000CF92DF92EF92FF924B015C01D0DF6B0180
:1008D0007C01CDDF6C197D098E099F09683E73404C
:1008E00081059105B0F321E0821A9108A108B108B1
:1008F00088EEC80E83E0D81EE11CF11C811491041F
:10090000A104B10431F7FF90EF90DF90CF90BF903A
:10091000AF909F908F900895089590E080E00895A3
:10092000EF92FF920F931F93CF93DF93E82EF62E53
:10093000C7E0D0E0042F10E0B8010C2E02C075957E
:1009400067950A94E2F761708E2D33DF61E08F2D99
:1009500030DF60E08F2D2DDF219770F7DF91CF9191
:100960001F910F91FF90EF900895CF93DF93CDE10A
:10097000D5E09885EC81FD8120819095922390832C
:100980009E81E881F9812081909592239083482F60
:100990006A858985C5DF8E81E881F9819081892BFF
:1009A0008083DF91CF9108951F93CF93DF93EC0164
:1009B000162F60E08E81FDDE412F6C858A85B0DFC9
:1009C00061E08E81DF91CF911F91F3CE1F93CF9382
:1009D000DF93EC01162F60E08885EBDE612FCE01FE
:1009E000DF91CF911F91E0CF0F931F93CF93DF93B0
:1009F000EC01062F142F688B798B4E875F8760E29E
:100A0000E5DF60E8600FCE01E1DF60E4610FCE0159
:100A1000DF91CF911F910F91D9CFCF93DF9361E0F9
:100A200080913005C6DEC9EFD1E060E088E295E054
:100A3000BBDF2197D1F750E040E070E060E088E252
:100A400095E0DF91CF91D0CFFC0101900020E9F734
:100A50003197AF01481B590BBC0188E295E0EDCD01
:100A60004F925F926F927F928F929F92AF92BF92BE
:100A7000CF92DF92EF92FF920F931F93CF93DF936A
:100A80008C0161E087E0C2DE60E086E0BFDE61E00D
:100A900085E0BCDE60E084E0B9DE61E083E0B6DEE4
:100AA00060E082E0B3DE61E08CE1B0DE60E08EE128
:100AB000ADDE61E080E2AADE60E086E1A7DE61E013
:100AC00088E1A4DE60E08AE1A1DE61E087E071DE1A
:100AD00086E047DE31E020E0892B09F030E0E32EAC
:100AE000F22E60E087E065DE86E03BDE019709F0EC
:100AF0003AC18FEFE81AF80A0115110571F082E08A
:100B0000E816F10409F010C18CE092E09DDF68EE78
:100B100073E080E090E0D0DE80DF61E085E049DED8
:100B200084E01FDEE701512C412C892B21F4219612
:100B300044244394512C60E085E03BDE84E011DEE8
:100B4000019709F015C18FEF481A580A219601152F
:100B5000110571F082E04816510409F0E9C086E3FE
:100B600092E072DF68EE73E080E090E0A5DE55DF92
:100B700061E083E01EDE82E0F4DD712C612C892BC4
:100B800021F4219666246394712C60E083E011DEE9
:100B900082E0E7DD019709F0F0C08FEF681A780A6C
:100BA00021960115110571F082E06816710409F0B3
:100BB000C3C080E692E048DF68EE73E080E090E03A
:100BC0007BDE2BDF61E08CE1F4DD8EE1CADD912C70
:100BD000812C892B21F4219688248394912C60E028
:100BE0008CE1E7DD8EE1BDDD019709F0CBC08FEF31
:100BF000881A980A21960115110571F082E088166D
:100C0000910409F09DC08AE892E01EDF68EE73E06F
:100C100080E090E051DE01DF61E080E2CADD86E144
:100C2000A0DDD12CC12C892B21F42196CC24C39496
:100C3000D12C60E080E2BDDD86E193DD019709F013
:100C4000A6C08FEFC81AD80A21960115110571F0B8
:100C500082E0C816D10409F077C084EB92E0F4DE9C
:100C600068EE73E080E090E027DED7DE61E088E1A7
:100C7000A0DD8AE176DDB12CA12C892B21F421960F
:100C8000AA24A394B12C60E088E193DD8AE169DDB8
:100C9000019709F081C08FEFA81AB80A21960115B3
:100CA000110571F082E0A816B10409F051C08EED73
:100CB00092E0CADE68EE73E080E090E0FDDDADDE3C
:100CC000C430D1050CF448C082E0E816F104A1F06C
:100CD00082E04816510481F082E06816710461F0E8
:100CE00082E08816910441F082E0C816D10421F018
:100CF00082E0A816B10431F481E090E090931205EF
:100D00008093110580E0DF91CF911F910F91FF90AB
:100D1000EF90DF90CF90BF90AF909F908F907F909B
:100D20006F905F904F90089578018FE192E0EECE42
:100D3000280189E492E015CF380183E792E03BCFA8
:100D400048018DE992E061CF680187EC92E087CF9E
:100D5000580181EF92E0ADCF2397A1F210921205D6
:100D600010921105CFCF0115110509F4D6CEDDCFB4
:100D70000115110509F4FCCEDCCF0115110509F4AC
:100D800021CFDBCF0115110509F446CFDACF0115CC
:100D9000110509F46BCFD9CF012B09F491CFD9CF2D
:100DA0008F929F92AF92BF92CF92DF92EF92FF927B
:100DB0000F931F93CF93DF934C0160E087E026DD14
:100DC00061E086E023DD61E085E020DD60E084E035
:100DD0001DDD61E083E01ADD61E082E017DD60E0A7
:100DE0008CE114DD61E08EE111DD61E080E20EDD79
:100DF00060E086E10BDD61E088E108DD61E08AE129
:100E000005DD61E085E0D5DC61E086E0D2DC87E0ED
:100E1000A8DC31E020E0892B09F030E0032F122F0D
:100E200061E085E0C6DC60E086E0C3DC87E099DC59
:100E3000892B11F40F5F1F4F60E085E0BADC61E0A1
:100E400086E0B7DC87E08DDC892B11F40F5F1F4F44
:100E500060E085E0AEDC60E086E0ABDC87E081DC72
:100E6000019711F40F5F1F4F8114910471F088E016
:100E700093E00330110514F48BE193E0E5DD68EEB7
:100E800073E080E090E018DDC8DD61E082E091DC95
:100E900061E083E08EDC84E064DCE801B12CA12C0D
:100EA000892B21F42196AA24A394B12C61E082E03D
:100EB00080DC60E083E07DDC84E053DC892B21F47E
:100EC0008FEFA81AB80A219660E082E072DC61E038
:100ED00083E06FDC84E045DC892B21F48FEFA81AD6
:100EE000B80A219660E082E064DC60E083E061DCC7
:100EF00084E037DC019721F48FEFA81AB80A219615
:100F00008114910471F083E0A816B1040CF4C2C0FE
:100F100082E393E099DD68EE73E080E090E0CCDC62
:100F20007CDD61E080E245DC61E08EE142DC8CE169
:100F300018DCD12CC12C892B21F42196CC24C3940C
:100F4000D12C61E080E235DC60E08EE132DC8CE1C6
:100F500008DC892B21F48FEFC81AD80A219660E0AB
:100F600080E227DC61E08EE124DC8CE1FADB892B76
:100F700021F48FEFC81AD80A219660E080E219DCCC
:100F800060E08EE116DC8CE1ECDB019721F48FEF61
:100F9000C81AD80A21968114910471F083E0C8160A
:100FA000D1040CF47AC08CE593E04EDD68EE73E07A
:100FB00080E090E081DC31DD61E08AE1FADB61E034
:100FC00088E1F7DB86E1CDDBF12CE12C892B21F4E4
:100FD0002196EE24E394F12C61E08AE1EADB60E003
:100FE00088E1E7DB86E1BDDB892B21F48FEFE81A8E
:100FF000F80A219660E08AE1DCDB61E088E1D9DB78
:1010000086E1AFDB892B21F48FEFE81AF80A2196ED
:1010100060E08AE1CEDB60E088E1CBDB86E1A1DB4A
:10102000019721F48FEFE81AF80A2196892869F0D0
:1010300083E0E816F104A4F186E893E005DD68EEAC
:1010400073E080E090E038DCE8DCC430D1055CF18E
:101050000430110561F084E0A816B10441F084E089
:10106000C816D10421F084E0E816F10431F481E0DF
:1010700090E09093180580931705DF91CF911F9111
:101080000F91FF90EF90DF90CF90BF90AF909F9027
:101090008F90089585E493E03DCF8FE693E085CF70
:1010A00089E993E0CBCF239741F310921805109272
:1010B0001705E3CF8F929F92AF92BF92CF92DF92AC
:1010C000EF92FF920F931F93CF93DF934C0161E058
:1010D00087E06FDB61E086E06CDB85E042DB31E0DE
:1010E00020E0892B09F030E0032F122F61E087E028
:1010F00060DB60E086E05DDB85E033DB019711F4C7
:101100000F5F1F4F60E087E054DB61E086E051DB5A
:1011100085E027DB019711F40F5F1F4F60E087E048
:1011200048DB60E086E045DB85E01BDB892B11F4C2
:101130000F5F1F4F8114910471F080EB93E0033037
:10114000110514F483EC93E07FDC68EE73E080E03B
:1011500090E0B2DB62DC61E084E02BDB61E083E005
:1011600028DB82E0FEDAE801B12CA12C892B21F4E6
:101170002196AA24A394B12C61E084E01ADB60E0FC
:1011800083E017DB82E0EDDA019721F48FEFA81AF4
:10119000B80A219660E084E00CDB61E083E009DBC3
:1011A00082E0DFDA019721F48FEFA81AB80A2196BE
:1011B00060E084E0FEDA60E083E0FBDA82E0D1DA2E
:1011C000892B21F48FEFA81AB80A21968114910473
:1011D00071F083E0A816B1040CF4C2C08AED93E06C
:1011E00033DC68EE73E080E090E066DB16DC61E003
:1011F0008CE1DFDA61E08EE1DCDA80E2B2DAD12C78
:10120000C12C892B21F42196CC24C394D12C61E0EC
:101210008CE1CFDA60E08EE1CCDA80E2A2DA0197ED
:1012200021F48FEFC81AD80A219660E08CE1C1DA68
:1012300061E08EE1BEDA80E294DA019721F48FEF6B
:10124000C81AD80A219660E08CE1B3DA60E08EE13A
:10125000B0DA80E286DA892B21F48FEFC81AD80A37
:1012600021968114910471F083E0C816D1040CF426
:101270007AC084E094E0E8DB68EE73E080E090E020
:101280001BDBCBDB61E086E194DA61E088E191DA97
:101290008AE167DAF12CE12C892B21F42196EE24E6
:1012A000E394F12C61E086E184DA60E088E181DAA0
:1012B0008AE157DA019721F48FEFE81AF80A2196AC
:1012C00060E086E176DA61E088E173DA8AE149DAA2
:1012D000019721F48FEFE81AF80A219660E086E181
:1012E00068DA60E088E165DA8AE13BDA892B21F48B
:1012F0008FEFE81AF80A2196892869F083E0E8164A
:10130000F104A4F18EE294E09FDB68EE73E080E0EC
:1013100090E0D2DA82DBC830D1055CF104301105EF
:1013200061F084E0A816B10441F084E0C816D1044D
:1013300021F084E0E816F10431F481E090E090932C
:10134000140580931305DF91CF911F910F91FF90AA
:10135000EF90DF90CF90BF90AF909F908F900895C7
:101360008DEE93E03DCF87E194E085CF81E494E07A
:10137000CBCF279741F31092140510921305E3CFBA
:101380008F929F92AF92BF92CF92DF92EF92FF9295
:101390000F931F93CF93DF934C0161E087E009DA4D
:1013A00061E086E006DA85E0DCD931E020E00197F3
:1013B00009F030E0032F122F61E087E0FAD960E0F6
:1013C00086E0F7D985E0CDD9892B11F40F5F1F4F47
:1013D00060E087E0EED961E086E0EBD985E0C1D935
:1013E000892B11F40F5F1F4F60E087E0E2D960E0C6
:1013F00086E0DFD985E0B5D9892B09F02AC10F5FD6
:101400001F4F8114910471F089E594E004301105B7
:1014100011F08DE694E018DB68EE73E080E090E078
:101420004BDAFBDA61E084E0C4D961E083E0C1D942
:1014300082E097D97C01E80181E0E816F10409F027
:10144000F8C0219661E084E0B4D960E083E0B1D9CE
:1014500082E087D9892B21F48FEFE81AF80A2196C8
:1014600060E084E0A6D961E083E0A3D982E079D985
:10147000892B21F48FEFE81AF80A219660E084E0C6
:1014800098D960E083E095D982E06BD9892B09F087
:10149000E5C08FEFE81AF80A21968114910471F0E3
:1014A00084E0E816F10409F0DDC085E894E0CCDAC8
:1014B00068EE73E080E090E0FFD9AFDA61E08CE1A4
:1014C00078D961E08EE175D980E24BD96C0181E079
:1014D000C816D10409F0B0C0219661E08CE169D949
:1014E00060E08EE166D980E23CD9892B21F48FEF50
:1014F000C81AD80A219660E08CE15BD961E08EE1E0
:1015000058D980E22ED9892B21F48FEFC81AD80A36
:10151000219660E08CE14DD960E08EE14AD980E20D
:1015200020D9892B09F0A6C08FEFC81AD80A2196B6
:101530008114910471F084E0C816D10409F09EC0B2
:1015400081EB94E081DA68EE73E080E090E0B4D95A
:1015500064DA61E086E12DD961E088E12AD98AE187
:1015600000D95C0181E0A816B10409F068C0219699
:1015700061E086E11ED960E088E11BD98AE1F1D8FB
:10158000892B21F48FEFA81AB80A219660E086E132
:1015900010D961E088E10DD98AE1E3D8892B21F4E3
:1015A0008FEFA81AB80A219660E086E102D960E0C0
:1015B00088E1FFD88AE1D5D8892B09F062C08FEF86
:1015C000A81AB80A2196892871F084E0A816B104F7
:1015D00009F05AC08DED94E037DA68EE73E080E0F0
:1015E00090E06AD91ADAC430D10564F104301105EB
:1015F00061F084E0E816F10441F084E0C816D104FB
:1016000021F084E0A816B10431F481E090E09093D9
:101610001A058093190580E0DF91CF911F910F91FA
:10162000FF90EF90DF90CF90BF90AF909F908F9002
:101630000895F12CE12C06CFD12CC12C4ECFB12C2A
:10164000A12C96CF239739F310921A051092190501
:10165000E2CF8114910409F0DCCEE4CE8114910430
:1016600009F42CCF89E994E0EFD960ED77E080E0D0
:1016700090E022CF8114910409F46BCF85EC94E0C3
:1016800061CF892809F4AFCF81EF94E0A5CF8F9285
:101690009F92AF92BF92CF92DF92EF92FF920F9301
:1016A0001F93CF93DF934C0161E087E082D861E024
:1016B00086E07FD885E055D831E020E0019709F039
:1016C00030E0032F122F61E087E073D860E086E0FE
:1016D00070D885E046D8019711F40F5F1F4F60E086
:1016E00087E067D861E086E064D885E03AD8019762
:1016F00011F40F5F1F4F61E087E088D861E086E05A
:1017000085D860E085E082D860E087E052D860E06C
:1017100086E04FD885E025D8892B09F069C10F5F95
:101720001F4F8114910471F089E093E0043011059A
:1017300011F08CE193E088D968EE73E080E090E0EE
:10174000BBD86BD961E084E034D861E083E031D864
:1017500082E007D87C01E80181E0E816F10409F095
:1017600037C1219661E084E024D860E083E021D88D
:1017700082E00E94B103019721F48FEFE81AF80A82
:10178000219660E084E015D861E083E012D882E021
:101790000E94B103019721F48FEFE81AF80A21960D
:1017A00061E084E033D861E083E030D860E082E03B
:1017B0002DD860E084E00E94D90360E083E00E94BD
:1017C000D90382E00E94B103892B09F016C18FEF83
:1017D000E81AF80A21968114910471F084E0E81661
:1017E000F10409F00EC183E393E02ED968EE73E0B3
:1017F00080E090E061D811D961E08CE10E94D903CA
:1018000061E08EE10E94D90380E20E94B1036C0185
:1018100081E0C816D10409F0DEC0219660E08CE1B9
:101820000E94D90361E08EE10E94D90380E20E9408
:10183000B103019721F48FEFC81AD80A219661E00D
:101840008CE10E94D90360E08EE10E94D90380E21E
:101850000E94B103019721F48FEFC81AD80A21968C
:1018600061E08CE10E94060461E08EE10E940604C2
:1018700060E080E20E94060460E08CE10E94D903EF
:1018800060E08EE10E94D90380E20E94B103892BBF
:1018900009F0BAC08FEFC81AD80A219681149104B2
:1018A00079F084E0C816D10409F0B2C08DE593E068
:1018B000CBD868EE73E080E090E00E945C04ADD885
:1018C00061E086E10E94D90361E088E10E94D903CA
:1018D0008AE10E94B1035C0181E0A816B10409F01D
:1018E0007DC0219661E086E10E94D90360E088E135
:1018F0000E94D9038AE10E94B103019721F48FEF7E
:10190000A81AB80A219660E086E10E94D90361E036
:1019100088E10E94D9038AE10E94B103019721F472
:101920008FEFA81AB80A219661E086E10E940604AA
:1019300061E088E10E94060460E08AE10E940604FA
:1019400060E086E10E94D90360E088E10E94D9034B
:101950008AE10E94B103892B09F05DC08FEFA81ABC
:10196000B80A2196892879F084E0A816B10409F014
:1019700055C087E893E068D868EE73E080E090E0B7
:101980000E945C044AD8C430D1055CF104301105D2
:1019900061F084E0E816F10441F084E0C816D10457
:1019A00021F084E0A816B10431F481E090E0909336
:1019B000160580931505DF91CF911F910F91FF9030
:1019C000EF90DF90CF90BF90AF909F908F90089551
:1019D000F12CE12CC7CED12CC12C20CFB12CA12CC5
:1019E00081CF239741F31092160510921505E3CF8E
:1019F0008114910409F09DCEA5CE8114910409F4BF
:101A0000FBCE86E493E0F1CE8114910409F458CF23
:101A100080E793E04DCF892809F4B5CF8AE993E0B8
:101A2000AACF8F929F92AF92BF92CF92DF92EF9206
:101A3000FF920F931F93CF93DF935C0161E087E0E8
:101A40000E94D90361E086E00E94D90385E00E94EC
:101A5000B10331E020E0892B09F030E0032F122F91
:101A600061E087E00E94D90360E086E00E94D9032C
:101A700085E00E94B103019711F40F5F1F4F60E0F2
:101A800087E00E94D90361E086E00E94D90385E0E7
:101A90000E94B103019711F40F5F1F4F60E087E0D0
:101AA0000E94D90360E086E00E94D90385E00E948D
:101AB000B103019709F053C10F5F1F4FA114B10487
:101AC00089F088E594E00430110511F08CE694E08B
:101AD0000E94240568EE73E080E090E00E945C04C0
:101AE0000E940D0561E084E00E94D90361E083E07B
:101AF0000E94D90382E00E94B103E801912C812C5D
:101B0000892B21F4219688248394912C61E084E030
:101B10000E94D90360E083E00E94D90382E00E9422
:101B2000B103019721F48FEF881A980A219660E09B
:101B300084E00E94D90361E083E00E94D90382E03F
:101B40000E94B103019721F48FEF881A980A219619
:101B500060E084E00E94D90360E083E00E94D90342
:101B600082E00E94B103019709F0FEC08FEF881A4E
:101B7000980A2196A114B10489F084E08816910492
:101B800009F0F6C084E894E00E94240568EE73E052
:101B900080E090E00E945C040E940D0561E08CE111
:101BA0000E94D90361E08EE10E94D90380E20E9485
:101BB000B103F12CE12C892B21F42196EE24E3943E
:101BC000F12C60E08CE10E94D90361E08EE10E947B
:101BD000D90380E20E94B103019721F48FEFE81A44
:101BE000F80A219661E08CE10E94D90360E08EE161
:101BF0000E94D90380E20E94B103019721F48FEF84
:101C0000E81AF80A219660E08CE10E94D90360E0AE
:101C10008EE10E94D90380E20E94B103019709F08E
:101C2000AAC08FEFE81AF80A2196A114B10489F02E
:101C300084E0E816F10409F0A2C080EB94E00E9471
:101C4000240568EE73E080E090E00E945C040E944E
:101C50000D0561E086E10E94D90361E088E10E9400
:101C6000D9038AE10E94B103D12CC12C892B21F424
:101C70002196CC24C394D12C61E086E10E94D90343
:101C800060E088E10E94D9038AE10E94B1030197D4
:101C900021F48FEFC81AD80A219660E086E10E94ED
:101CA000D90361E088E10E94D9038AE10E94B1036F
:101CB000019721F48FEFC81AD80A219660E086E1D7
:101CC0000E94D90360E088E10E94D9038AE10E9462
:101CD000B103019709F056C08FEFC81AD80A2196B0
:101CE000AB2889F084E0C816D10409F04EC08CED11
:101CF00094E00E94240568EE73E080E090E00E948A
:101D00005C040E940D05C830D10514F104301105A2
:101D100061F084E08816910441F084E0E816F10453
:101D200021F084E0C816D10431F481E090E0909372
:101D30001C0580931B05DF91CF911F910F91FF90A0
:101D4000EF90DF90CF90BF90AF909F908F900895CD
:101D500026978CF710921C0510921B05ECCFA1144E
:101D6000B10409F0B3CEBECEA114B10409F416CF6C
:101D700088E994E009CFA114B10409F46ACF84EC96
:101D800094E05DCFAB2809F4BECF80EF94E0B1CFF3
:101D90008F929F92AF92BF92CF92DF92EF92FF927B
:101DA0000F931F93CF93DF9300D000D000D01F92EA
:101DB000CDB7DEB78C01D62E5C018EE0A80EB11C2B
:101DC0009AE0691318C0C5010E94100381E090E0F9
:101DD0002A960FB6F894DEBF0FBECDBFDF91CF912C
:101DE0001F910F91FF90EF90DF90CF90BF90AF9039
:101DF0009F908F900895F801468557856089718975
:101E0000C8010E94F40461E0F80180850E94D903B2
:101E100084EEE82E80E0F82E4AE050E0B701CE01D3
:101E20000196D9D28A81D81679F0FAE0EF0EF11C2A
:101E30008AE9E81684E0F80679F74AE050E064EEB3
:101E400070E0CE010196C7D2C984DA84F801808996
:101E500091898C0D9D1D8535910580F0C5010E94ED
:101E60001003F8014685578560897189C8010E9471
:101E7000F40461E0F80180850E94D903CE01019647
:101E80007C014C018C0C9D1C8E149F0449F0F701C1
:101E90006281C8010E94D404FFEFEF1AFF0AF4CF59
:101EA00060E0C8010E94D404F801808991890196FC
:101EB000918B808B8435910530F0C5010E94100311
:101EC000F801118A108AF1E0CF1AD10868F77ECFA5
:101ED0001F920F920FB60F9211242F933F938F935F
:101EE0009F93AF93BF938091090590910A05A091AC
:101EF0000B05B0910C053091080523E0230F2D3719
:101F000058F50196A11DB11D209308058093090580
:101F100090930A05A0930B05B0930C0580910D05D5
:101F200090910E05A0910F05B09110050196A11D8D
:101F3000B11D80930D0590930E05A0930F05B093EE
:101F40001005BF91AF919F918F913F912F910F906D
:101F50000FBE0F901F90189526E8230F0296A11D23
:101F6000B11DD2CF789484B5826084BD84B5816080
:101F700084BD85B5826085BD85B5816085BD809154
:101F80006E00816080936E001092810080918100CC
:101F900082608093810080918100816080938100C4
:101FA000809180008160809380008091B100846086
:101FB0008093B1008091B00081608093B0008091E7
:101FC0009100826080939100809191008160809364
:101FD0009100809190008160809390008091A10099
:101FE00082608093A1008091A10081608093A10014
:101FF0008091A00081608093A00080912101826087
:102000008093210180912101816080932101809141
:10201000200181608093200180917A008460809308
:102020007A0080917A00826080937A0080917A00B1
:10203000816080937A0080917A00806880937A0032
:102040001092C10000E010E061E087E00E94060409
:1020500061E086E00E94060460E085E00E940604DC
:1020600061E084E00E94060461E083E00E940604CF
:1020700060E082E00E94060461E08CE10E940604B8
:1020800061E08EE10E94060460E080E20E940604A6
:1020900061E086E10E94060461E088E10E94060496
:1020A00060E08AE10E94060461E081E00E9406048B
:1020B00061E084E20E94060460E081E00E94D903AE
:1020C00061E084E20E94D90361E080E40E9406049A
:1020D00061E08FE30E94060461E08EE30E94060443
:1020E00061E080E40E94D90361E08FE30E94D9039C
:1020F00060E08EE30E94D90360E087E00E94D9038C
:1021000060E086E00E94D90385E00E94B10331E0DF
:1021100020E0892B09F030E0C32FD22F60E084E06B
:102120000E94D90360E083E00E94D90382E00E940C
:10213000B103892B09F4219660E08CE10E94D90358
:1021400060E08EE10E94D90380E20E94B103892BF6
:1021500009F4219660E086E10E94D90360E088E1FD
:102160000E94D9038AE10E94B103892B09F42196C8
:10217000229764F490E080E054DC80911B059091FC
:102180001C05892B19F081E090E04BDC90E080E0A9
:10219000F7D88091190590911A05892B19F081E0E3
:1021A00090E0EED890E080E00E94D0068091170584
:1021B00090911805892B21F081E090E00E94D006D3
:1021C0008091170590911805892B61F490E080E0CB
:1021D0005EDA8091150590911605892B19F081E042
:1021E00090E055DA80911B0590911C05892B11F523
:1021F00090E080E00E945A088091130590911405A8
:10220000892B21F081E090E00E945A088091170507
:1022100090911805892B71F490E080E00E943005C0
:102220008091110590911205892B21F081E090E0B9
:102230000E9430050115110509F406CF0E94000027
:1022400003CFCF93DF93EDE2F5E0E491F0E0EE0F02
:10225000FF1FEC54FB4F85919491CDE1D5E099831C
:102260008883ECE2F5E0E491F0E0EE0FFF1FEC5420
:10227000FB4F859194919B838A83EBE2F5E0E49197
:10228000F0E0EE0FFF1FEC54FB4F859194919D837E
:102290008C83E3E7F5E0E491EE83E2E7F5E0E49197
:1022A000EF83E1E7F5E0E491E88761E085E40E94EF
:1022B000060461E084E40E94060461E083E40E9475
:1022C000060461E082E40E94060461E081E40E9469
:1022D000060482E4898781E48A878F81EA81FB8111
:1022E00090818095892380838F81EA81FB81908111
:1022F000892B808381E20E94B50489EB0E94B5049A
:1023000084E00E94B50484E10E94B5048CE00E9440
:10231000B50480E20E94B5048CE00E94B504C8E2D6
:10232000D5E01B821A8284E092E0998388831F861D
:102330001E86198A188A85E490E09D838C8384E444
:1023400090E09F838E8383E490E09987888782E47E
:1023500090E09B878A8781E490E09D878C8761E08D
:1023600085E40E94060461E084E40E94060461E0C2
:1023700083E40E94060461E082E40E94060461E0B6
:1023800081E40E9406041F861E86198A188A60E06E
:102390008C810E94D90361E08C810E94D9030E9444
:1023A0000D0560E2CE010E94E6046CE0CE010E94C1
:1023B000E60461E2CE010E94E60464E1CE010E94DF
:1023C000E60461E2CE010E94E6046CEBCE01DF91EF
:1023D000CF910C94E604FB01DC0102C005900D9244
:1023E00041505040D8F70895EE0FFF1F881F8BBF54
:0C23F0000790F691E02D1994F894FFCFAF
:1023FC0000000000C80E1D038D048C046E6F742049
:10240C0067617465203120574F524B494E47006E1F
:10241C006F7420676174652031206E6F7420574F84
:10242C00524B494E47006E6F7420676174652032C1
:10243C0020574F524B494E47006E6F7420676174A2
:10244C00652032206E6F7420574F524B494E470017
:10245C006E6F742067617465203320574F524B495F
:10246C004E47006E6F7420676174652033206E6F69
:10247C007420574F524B494E47006E6F7420676162
:10248C007465203420574F524B494E47006E6F7481
:10249C0020676174652034206E6F7420574F524B47
:1024AC00494E47006E6F7420676174652035205764
:1024BC004F524B494E47006E6F7420676174652014
:1024CC0035206E6F7420574F524B494E47006E6F3C
:1024DC00742067617465203620574F524B494E4724
:1024EC00006E6F7420676174652036206E6F7420E7
:1024FC00574F524B494E47004E4F522067617465FF
:10250C0020312D574F524B494E47004E4F522067AA
:10251C0061746520312D6E6F7420574F524B494EAC
:10252C0047004E4F52206761746520322D574F5231
:10253C004B494E47004E4F52206761746520322D37
:10254C006E6F7420574F524B494E47004E4F5220DE
:10255C006761746520332D574F524B494E47004EDF
:10256C004F52206761746520332D6E6F7420574F66
:10257C00524B494E47004E4F5220676174652034D0
:10258C002D574F524B494E47004E4F5220676174A6
:10259C006520342D6E6F7420574F524B494E4700B7
:1025AC00584F52206761746520312D574F524B495B
:1025BC004E4700584F52206761746520312D6E6F65
:1025CC007420574F524B494E4700584F5220676169
:1025DC00746520322D574F524B494E4700584F527D
:1025EC00206761746520322D6E6F7420574F524BEB
:1025FC00494E4700584F52206761746520332D5760
:10260C004F524B494E4700584F522067617465201A
:10261C00332D6E6F7420574F524B494E4700584F15
:10262C0052206761746520342D574F524B494E47E9
:10263C0000584F52206761746520342D6E6F7420E2
:10264C00574F524B494E47004E414E4420676174E0
:10265C006520312D574F524B494E47004E414E4449
:10266C00206761746520312D6E6F7420574F524B6B
:10267C00494E47004E414E44206761746520322D0F
:10268C00574F524B494E47004E414E4420676174A0
:10269C006520322D6E6F7420574F524B494E4700B8
:1026AC004E414E44206761746520332D574F524B79
:1026BC00494E47004E414E44206761746520332DCE
:1026CC006E6F7420574F524B494E47006E616E64CB
:1026DC00206761746520342D574F524B494E47008B
:1026EC004E414E44206761746520342D6E6F74200A
:0826FC00574F524B494E4700B5
:00000001FF
