:10000000DDC200000CC300000AC3000008C30000EA
:1000100006C3000004C3000002C3000000C30000C8
:10002000FEC20000FCC20000FAC20000F8C20000DC
:10003000F6C20000F4C20000F2C20000F0C20000EC
:10004000EEC20000ECC20000EAC20000E8C20000FC
:10005000E6C20000E4C20000E2C200000C94BB1043
:10006000DEC20000DCC20000DAC20000D8C200001C
:10007000D6C20000D4C20000D2C20000D0C200002C
:10008000CEC20000CCC20000CAC20000C8C200003C
:10009000C6C20000C4C20000C2C20000C0C200004C
:1000A000BEC20000BCC20000BAC20000B8C200005C
:1000B000B6C20000B4C20000B2C20000B0C200006C
:1000C000AEC20000ACC20000AAC20000A8C200007C
:1000D000A6C20000A4C20000A2C20000A0C200008C
:1000E0009EC200003F3F0201510906000500414148
:1000F0007C1211127C00050042427F4949493600BA
:10010000050043433E4141412200050044447F41F4
:1001100041413E00050045457F49494941000500F0
:1001200046467F0909090100050047473E41494904
:100130003A00050048487F0808087F000500494943
:1001400000417F41000005004A4A304040403F00E6
:1001500005004B4B7F080814630005004C4C7F40A2
:100160004040400005004D4D7F060C067F00050015
:100170004E4E7F0408107F0005004F4F3E41414125
:100180003E00050050507F09090906000500515145
:100190003E4151617E00050052527F0919294600F7
:1001A00005005353264949493200050054540101C2
:1001B0007F010100050055553F4040403F000500CC
:1001C00056561F2040201F00050057573F4038401B
:1001D0003F0005005858631408146300050059597E
:1001E00007087008070005005A5A61514945430045
:1001F00005002D2D08080808080005002121000031
:100200005F00000005002E2E0040000000000300EB
:10021000313142427F40400005003232625149454F
:10022000420005003333224149493E000500343481
:100230001F107C101000050035354F494949310029
:10024000050036363E49494932000500373701017D
:10025000790503000500383836494949360005005C
:100260003939264949493E00050030303E41414177
:100270003E0005002B2B08083E08080005003A3A0E
:1002800000280000000003003D3D14141414140065
:1002900005002020000000000000020061612054E1
:1002A00054547800050062627F48484830000500D9
:1002B000636338444444280005006464205050506F
:1002C0007F00050065653854545448000500666693
:1002D000087E09010200050067674854545438003D
:1002E000050068687F0808087000050069694044D7
:1002F0007D40400005006A6A2040443D0000050042
:100300006B6B7F101028440005006C6C01017F406E
:10031000400005006D6D7C047C04780005006E6E65
:100320007C040404780005006F6F384444443800AE
:10033000050070707C141414080005007171081415
:1003400014147C00050072727C080404040005008B
:1003500073734854545424000500747402023F42DD
:100360004200050075753C4040207C000500767613
:100370001C2040201C00050077777C2070207C002A
:1003800005007878442810284400050079794C50FD
:1003900050503C0005007A7A4464544C44000500F7
:1003A0005B5B007F4141000005005D5D0041417FD6
:1003B000000005007B7B08083641410005007D7D7B
:1003C00041413608080005002828001C2241000091
:1003D000050029290041221C0000050040403E4143
:1003E0005D551E0005002323143E143E1400050035
:1003F00024242C2A7F2A12000500252526160834DD
:10040000320005005E5E04020102040005005F5F29
:100410004040404040000500272707000000000042
:100420000100222200070007000005003B3B0040BE
:100430007636000005002F2F20100804020005006A
:100440005C5C02040810200005003C3C00102844BD
:10045000000005003E3E00442810000005002A2A46
:10046000120C3F0C12000500606001020000000049
:1004700002007E7E02010302010005002626304AAA
:10048000452A102806000A0A0000000000000000AB
:100490000D0D0000000000000000000021002400FD
:1004A00027002A002D003000330001010000040164
:1004B00007010A0100002200250028002B002E0061
:1004C0003100340002010000050108010B010000A9
:1004D00020002300260029002C002F0032000001FC
:1004E00000000301060109010505050507050808C7
:1004F0000808020202020A0A0808040404040101AE
:1005000001010101010103030303030303030407C2
:1005100007070C0C0C0C0C0C0C0C02020202060659
:100520000606060606060B0B0B0B0B0B0B0B01024C
:1005300010202008081020401020408002010201F5
:1005400008040201010204081020408080402010AD
:100550000804020180040201804020100804020106
:10056000080402010102040810204080010204086E
:100570001020408000000A0B02090C0D0E08070332
:100580000401000000000000000000000000000066
:10059000000000000000000000000000000000005B
:1005A0001211100000000000000000000000000018
:1005B000000000000000000000001E1411241FBEF7
:1005C000CFEFD1E2DEBFCDBF00E00CBF15E0A0E071
:1005D000B2E0E8EEF9E200E00BBF02C007900D9236
:1005E000AC38B107D9F725E0ACE8B5E001C01D9201
:1005F000A03CB207E1F712E0CEEDD2E000E006C089
:1006000021970109802FFE010E94EA14CD3DD107F8
:1006100080E00807A9F70E9425110C94F214F0CC91
:10062000FC018081918101969183808313821282E3
:10063000069710F0118210820895AF92BF92CF9268
:10064000DF92EF92FF920F931F93CF93DF936C0192
:100650007B018B01040F151FEB015E01AE18BF0873
:10066000C017D10759F06991D601ED91FC91019025
:10067000F081E02DC6011995892B79F7C501DF912D
:10068000CF911F910F91FF90EF90DF90CF90BF908F
:10069000AF9008958150823108F05AC0E82FF0E001
:1006A0008827EA5AFC4F8F4F0C94EA1476037A039A
:1006B00068036E037203A8037D03830387038D031E
:1006C000910395039B039F03A803A303A903AD0311
:1006D000809180008F7780938000089580918000C2
:1006E0008F7DF9CF80918000877FF5CF84B58F779C
:1006F00084BD089584B58F7DFBCF8091B0008F7746
:100700008093B00008958091B0008F7DF9CF8091E3
:1007100090008F77809390000895809190008F7D56
:10072000F9CF80919000877FF5CF8091A0008F77DF
:100730008093A00008958091A0008F7DF9CF8091D3
:10074000A000877FF5CF809120018F7780932001D3
:100750000895809120018F7DF9CF80912001877FBE
:10076000F5CFCF93DF93282F30E0F901EC58FA4F03
:100770008491F901E25DFA4FD491F901E851FB4F00
:10078000C491CC2399F0811185DFEC2FF0E0EE0FBE
:10079000FF1FE253FB4FA591B491EC91ED2381E053
:1007A00090E009F480E0DF91CF91089580E090E03F
:1007B000FACF1F93CF93DF93282F30E0F901EC5845
:1007C000FA4F8491F901E25DFA4FD491F901E851B1
:1007D000FB4FC491CC23A1F0162F81115BDFEC2FCE
:1007E000F0E0EE0FFF1FEC54FB4FA591B4918FB7D3
:1007F000F894EC91111108C0D095DE23DC938FBFE3
:10080000DF91CF911F910895DE2BF8CFCF93DF9327
:1008100090E0FC01E25DFA4F249188519B4FFC016E
:1008200084918823D1F090E0880F991FFC01E6564F
:10083000FB4FA591B491FC01EC54FB4FC591D491B1
:1008400061110EC09FB7F8948C91E22FE0958E2332
:100850008C932881E223E8839FBFDF91CF91089595
:100860008FB7F894EC91E22BEC938FBFF6CF3FB7A4
:10087000F8948091910590919205A0919305B09183
:10088000940526B5A89B05C02F3F19F00196A11D20
:10089000B11D3FBFBA2FA92F982F8827BC01CD01CA
:1008A000620F711D811D911D42E0660F771F881F29
:1008B000991F4A95D1F708958F929F92AF92BF9258
:1008C000CF92DF92EF92FF924B015C01D0DF6B0180
:1008D0007C01CDDF6C197D098E099F09683E73404C
:1008E00081059105B0F321E0821A9108A108B108B1
:1008F00088EEC80E83E0D81EE11CF11C811491041F
:10090000A104B10431F7FF90EF90DF90CF90BF903A
:10091000AF909F908F900895089590E080E00895A3
:10092000EF92FF920F931F93CF93DF93E82EF62E53
:10093000C7E0D0E0042F10E0B8010C2E02C075957E
:1009400067950A94E2F761708E2D33DF61E08F2D99
:1009500030DF60E08F2D2DDF219770F7DF91CF9191
:100960001F910F91FF90EF9008951F93CF93DF9306
:10097000EC01162F60E08E811CDF412F6C858A858B
:10098000CFDF61E08E81DF91CF911F9112CF1F9356
:10099000CF93DF93EC01162F60E088850ADF612F8B
:1009A000CE01DF91CF911F91E0CF0F931F93CF9393
:1009B000DF93EC01062F142F688B798B4E875F87AE
:1009C00060E2E5DF60E8600FCE01E1DF60E4610F27
:1009D000CE01DF91CF911F910F91D9CFCF93DF93AC
:1009E00061E08091B605E5DEC9EFD1E060E08EEA16
:1009F00095E0BBDF2197D1F750E040E070E060E088
:100A00008EEA95E0DF91CF91D0CFFC0101900020DC
:100A1000E9F73197AF01481B590BBC018EEA95E00D
:100A20000CCECF92DF92EF92FF920F931F93CF9352
:100A3000DF936C0161E087E0E9DE60E087E0B9DE2A
:100A400061E086E0E3DE61E085E0E0DE60E084E036
:100A5000DDDE60E083E0DADE60E082E0D7DE60E0E9
:100A600081E0D4DE61E080E0D1DE60E080E0A1DE04
:100A700060E082E2CBDE60E080E2C8DE60E08EE132
:100A8000C5DE60E08CE1C2DE61E08AE1BFDE61E0EC
:100A900088E1BCDE61E086E1B9DE60E086E189DE06
:100AA00061E084E2B3DE61E084E283DE61E087E05E
:100AB000ADDE60E087E07DDE61E086E07ADE61E069
:100AC00085E077DE81E04DDE019709F4F6C0D0E0E5
:100AD000C0E060E086E06DDE61E085E06ADE81E036
:100AE00040DE019769F482E03CDE892B49F483E023
:100AF00038DE019729F484E034DE019709F4219669
:100B000061E086E056DE60E085E053DE81E029DECC
:100B1000019769F482E025DE019749F483E021DE44
:100B2000892B29F484E01DDE019709F4219660E009
:100B300086E03FDE60E085E03CDE81E012DE892B6E
:100B400069F482E00EDE019749F483E00ADE019742
:100B500029F484E006DE019709F42196C114D1043A
:100B600071F08CE092E0C330D10514F483E292E09E
:100B70004CDF68EE73E080E090E09EDE2FDF61E006
:100B800086E144DE60E086E114DE61E088E111DEAA
:100B900061E08AE10EDE82E2E4DD019709F0A1C0A6
:100BA00080E2DFDD019709F09CC08EE1DADD8C0187
:100BB000019709F096C08CE1D4DD7E01892B09F004
:100BC00091C08FEFE81AF80A60E088E1F2DD61E099
:100BD0008AE1EFDD82E2C5DD019789F480E2C1DDC3
:100BE000892B69F48EE1BDDD019749F48CE1B9DD13
:100BF000019729F40F5F1F4F8FEFE81AF80A61E0A1
:100C000088E1D7DD60E08AE1D4DD82E2AADD0197E8
:100C100089F480E2A6DD019769F48EE1A2DD892BDB
:100C200049F48CE19EDD019729F40F5F1F4F8FEF90
:100C3000E81AF80A60E088E1BCDD60E08AE1B9DD2D
:100C400082E28FDD892B89F480E28BDD019769F4E4
:100C50008EE187DD019749F48CE183DD019729F46A
:100C60000F5F1F4F8FEFE81AF80ACD2871F08EE35F
:100C700092E00330110514F485E592E0C6DE68EEDB
:100C800073E080E090E018DEA9DE83E0E816F1046E
:100C900064F1249719F00430110531F481E090E0FB
:100CA0009093960580939505DF91CF911F910F91B9
:100CB000FF90EF90DF90CF90089582E052DD019792
:100CC00009F005CF83E04DDD019709F000CF84E006
:100CD00048DD31E020E0892B09F030E0C32FD22F2E
:100CE000F8CE7E0110E000E06FCF109296051092D2
:100CF0009505DACF4F925F926F927F928F929F927B
:100D0000AF92BF92CF92DF92EF92FF920F931F9319
:100D1000CF93DF938C0161E087E078DD60E086E0CF
:100D200075DD61E085E072DD60E084E06FDD61E04B
:100D300083E06CDD60E082E069DD61E08CE166DD2E
:100D400060E08EE163DD61E080E260DD60E086E12D
:100D50005DDD61E088E15ADD60E08AE157DD61E058
:100D600087E027DD86E0FDDC31E020E0892B09F01B
:100D700030E0E32EF22E60E087E01BDD86E0F1DC60
:100D8000019709F03BC18FEFE81AF80A0115110528
:100D900071F082E0E816F10409F0E7C080E792E024
:100DA00034DE68EE73E080E090E086DD17DE61E01F
:100DB00085E0FFDC84E0D5DCE701912C812C892BD8
:100DC00021F4219688248394912C60E085E0F1DC65
:100DD00084E0C7DC019709F016C18FEF881A980AE2
:100DE00021960115110571F082E08816910409F031
:100DF000C0C08AE992E009DE68EE73E080E090E02E
:100E00005BDDECDD61E083E0D4DC82E0AADCD12CA8
:100E1000C12C892B21F42196CC24C394D12C60E0E1
:100E200083E0C7DC82E09DDC019709F0F1C08FEF21
:100E3000C81AD80A21960115110571F082E0C8166A
:100E4000D10409F09AC084EC92E0DFDD68EE73E033
:100E500080E090E031DDC2DD61E08EE1AADC80E27D
:100E600080DC712C612C892B21F4219666246394FB
:100E7000712C60E08EE19DDC80E273DC019709F06B
:100E800080C08FEF681A780A21960115110509F0C4
:100E900081C061E08AE18DDC8CE163DC512C412C66
:100EA000892B21F4219644244394512C60E08AE15B
:100EB00080DC8CE156DC019709F076C08FEF481A90
:100EC000580A21960115110509F077C061E086E105
:100ED00070DC88E146DCB12CA12C892B21F4219611
:100EE000AA24A394B12C60E086E163DC88E139DCBC
:100EF000019709F06CC08FEFA81AB80A2196012B50
:100F000009F06DC027970CF474C082E0E816F10474
:100F1000A1F082E08816910481F082E0C816D10425
:100F200061F082E06816710441F082E048165104D5
:100F300021F082E0A816B10431F481E090E09093B2
:100F400098058093970580E0DF91CF911F910F91D5
:100F5000FF90EF90DF90CF90BF90AF909F908F90D9
:100F60007F906F905F904F900895780183E892E0B2
:100F700017CF48018DEA92E03ECF680187ED92E0FD
:100F800064CF0115110509F484CF81E093E0611469
:100F9000710411F08EEE92E038DD68EE73E080E0CF
:100FA00090E08ADC1BDD75CF0115110509F48ECFA9
:100FB0008BE293E04114510411F088E193E025DDC8
:100FC00068EE73E080E090E077DC08DD7FCF012BF6
:100FD00009F498CF85E593E0A114B10411F082E4FF
:100FE00093E013DD68EE73E080E090E065DCF6DC12
:100FF00089CF1092980510929705A5CF011511057C
:1010000009F4D5CEB3CF0115110509F4FBCEB2CF4B
:101010000115110509F420CFB1CF8F929F92AF92A5
:10102000BF92CF92DF92EF92FF920F931F93CF93D5
:10103000DF934C0160E087E0E9DB61E086E0E6DB1E
:1010400061E085E0E3DB60E084E0E0DB61E083E039
:10105000DDDB61E082E0DADB60E08CE1D7DB61E0E0
:101060008EE1D4DB61E080E2D1DB60E086E1CEDBC3
:1010700061E088E1CBDB61E08AE1C8DB61E085E02B
:1010800098DB61E086E095DB87E06BDB31E020E018
:10109000892B09F030E0032F122F61E085E089DB16
:1010A00060E086E086DB87E05CDB892B11F40F5F74
:1010B0001F4F60E085E07DDB61E086E07ADB87E062
:1010C00050DB892B11F40F5F1F4F60E085E071DB6F
:1010D00060E086E06EDB87E044DB019711F40F5F90
:1010E0001F4F8114910471F08CE693E003301105D9
:1010F00014F48FE793E089DC68EE73E080E090E021
:10110000DBDB6CDC61E082E054DB61E083E051DB3F
:1011100084E027DBE801B12CA12C892B21F4219656
:10112000AA24A394B12C61E082E043DB60E083E079
:1011300040DB84E016DB892B21F48FEFA81AB80A74
:10114000219660E082E035DB61E083E032DB84E021
:1011500008DB892B21F48FEFA81AB80A219660E0EA
:1011600082E027DB60E083E024DB84E0FADA0197A9
:1011700021F48FEFA81AB80A21968114910471F016
:1011800083E0A816B1040CF4C1C086E993E03DDC0D
:1011900068EE73E080E090E08FDB20DC61E080E2CD
:1011A00008DB61E08EE105DB8CE1DBDAD12CC12CC0
:1011B000892B21F42196CC24C394D12C61E080E2C8
:1011C000F8DA60E08EE1F5DA8CE1CBDA892B21F4F4
:1011D0008FEFC81AD80A219660E080E2EADA61E06F
:1011E0008EE1E7DA8CE1BDDA892B21F48FEFC81AA2
:1011F000D80A219660E080E2DCDA60E08EE1D9DA9C
:101200008CE1AFDA019721F48FEFC81AD80A219642
:101210008114910471F083E0C816D1040CF479C0F4
:1012200080EC93E0F2DB68EE73E080E090E044DB7A
:10123000D5DB61E08AE1BDDA61E088E1BADA86E116
:1012400090DAF12CE12C892B21F42196EE24E39401
:10125000F12C61E08AE1ADDA60E088E1AADA86E1AA
:1012600080DA892B21F48FEFE81AF80A219660E0E2
:101270008AE19FDA61E088E19CDA86E172DA892B03
:1012800021F48FEFE81AF80A219660E08AE191DAFA
:1012900060E088E18EDA86E164DA019721F48FEF6D
:1012A000E81AF80A2196892869F083E0E816F10423
:1012B0009CF18AEE93E0A9DB68EE73E080E090E0B9
:1012C000FBDA8CDB28975CF10430110561F084E0D7
:1012D000A816B10441F084E0C816D10421F084E0DE
:1012E000E816F10431F481E090E090939A05809340
:1012F0009905DF91CF911F910F91FF90EF90DF90B3
:10130000CF90BF90AF909F908F90089589EA93E01F
:101310003ECF83ED93E086CF8DEF93E0CCCF10925C
:101320009A0510929905E5CF8F929F92AF92BF9246
:10133000CF92DF92EF92FF920F931F93CF93DF93A1
:101340004C0161E087E035DA61E086E032DA85E081
:1013500008DA31E020E0892B09F030E0032F122F6A
:1013600061E087E026DA60E086E023DA85E0F9D9FB
:10137000019711F40F5F1F4F60E087E01ADA61E018
:1013800086E017DA85E0EDD9019711F40F5F1F4F62
:1013900060E087E00EDA60E086E00BDA85E0E1D914
:1013A000892B11F40F5F1F4F8114910471F084E1B8
:1013B00094E00330110514F487E294E026DB68EE34
:1013C00073E080E090E078DA09DB61E084E0F1D955
:1013D00061E083E0EED982E0C4D9E801B12CA12C10
:1013E000892B21F42196AA24A394B12C61E084E0F6
:1013F000E0D960E083E0DDD982E0B3D9019721F440
:101400008FEFA81AB80A219660E084E0D2D961E093
:1014100083E0CFD982E0A5D9019721F48FEFA81AF4
:10142000B80A219660E084E0C4D960E083E0C1D9C5
:1014300082E097D9892B21F48FEFA81AB80A219658
:101440008114910471F083E0A816B1040CF4C1C0BA
:101450008EE394E0DADA68EE73E080E090E02CDA74
:10146000BDDA61E08CE1A5D961E08EE1A2D980E22C
:1014700078D9D12CC12C892B21F42196CC24C3946A
:10148000D12C61E08CE195D960E08EE192D980E2C7
:1014900068D9019721F48FEFC81AD80A219660E025
:1014A0008CE187D961E08EE184D980E25AD9019735
:1014B00021F48FEFC81AD80A219660E08CE179D91F
:1014C00060E08EE176D980E24CD9892B21F48FEF50
:1014D000C81AD80A21968114910471F083E0C816C5
:1014E000D1040CF479C088E694E08FDA68EE73E0FA
:1014F00080E090E0E1D972DA61E086E15AD961E0FA
:1015000088E157D98AE12DD9F12CE12C892B21F4DE
:101510002196EE24E394F12C61E086E14AD960E063
:1015200088E147D98AE11DD9019721F48FEFE81AA4
:10153000F80A219660E086E13CD961E088E139D97A
:101540008AE10FD9019721F48FEFE81AF80A219662
:1015500060E086E12ED960E088E12BD98AE101D9EB
:10156000892B21F48FEFE81AF80A2196892869F06F
:1015700083E0E816F1049CF182E994E046DA68EE33
:1015800073E080E090E098D929DA28975CF1043084
:10159000110561F084E0A816B10441F084E0C8169A
:1015A000D10421F084E0E816F10431F481E090E008
:1015B00090939E0580939D05DF91CF911F910F9190
:1015C000FF90EF90DF90CF90BF90AF909F908F9063
:1015D000089581E594E03ECF8BE794E086CF85EADD
:1015E00094E0CCCF10929E0510929D05E5CF8F928E
:1015F0009F92AF92BF92CF92DF92EF92FF920F93A2
:101600001F93CF93DF934C0161E087E0D2D861E074
:1016100086E0CFD885E0A5D831E020E0019709F039
:1016200030E0032F122F61E087E0C3D860E086E04E
:10163000C0D885E096D8892B11F40F5F1F4F60E06A
:1016400087E0B7D861E086E0B4D885E08AD8892BF6
:1016500011F40F5F1F4F60E087E0ABD860E086E0D9
:10166000A8D885E07ED8892B09F035C10F5F1F4FC0
:101670008114910471F08DEB94E00430110511F0A8
:1016800081ED94E0C2D968EE73E080E090E014D977
:10169000A5D961E084E08DD861E083E08AD882E05A
:1016A00060D87C01E80181E0E816F10409F005C189
:1016B000219661E084E07DD860E083E07AD882E022
:1016C00050D8892B21F48FEFE81AF80A219660E0B0
:1016D00084E06FD861E083E06CD882E042D8892B47
:1016E00021F48FEFE81AF80A219660E084E061D8CF
:1016F00060E083E05ED882E034D8892B09F0F0C046
:101700008FEFE81AF80A21968114910471F084E0B1
:10171000E816F10409F0E8C089EE94E076D968EEA5
:1017200073E080E090E0C8D859D961E08CE141D8FD
:1017300061E08EE13ED880E214D86C0181E0C816E9
:10174000D10409F0BDC0219661E08CE132D860E09F
:101750008EE12FD880E205D8892B21F48FEFC81AAB
:10176000D80A219660E08CE124D861E08EE121D88E
:1017700080E20E94B103892B21F48FEFC81AD80AA6
:10178000219660E08CE115D860E08EE112D880E20D
:101790000E94B103892B09F0AFC08FEFC81AD80A95
:1017A00021968114910471F084E0C816D10409F0E7
:1017B000A7C085E195E029D968EE73E080E090E06C
:1017C0007BD80CD961E086E10E94D90361E088E111
:1017D0000E94D9038AE10E94B1035C0181E0A8164E
:1017E000B10409F070C0219661E086E10E94D9033E
:1017F00060E088E10E94D9038AE10E94B103892B4D
:1018000021F48FEFA81AB80A219660E086E10E94C1
:10181000D90361E088E10E94D9038AE10E94B10303
:10182000892B21F48FEFA81AB80A219660E086E18F
:101830000E94D90360E088E10E94D9038AE10E94F6
:10184000B103892B09F05FC08FEFA81AB80A21965F
:10185000892871F084E0A816B10409F057C081E42A
:1018600095E0D3D868EE73E080E090E025D8B6D854
:10187000289764F10430110561F084E0E816F10462
:1018800041F084E0C816D10421F084E0A816B10428
:1018900031F481E090E090939C0580939B0580E07B
:1018A000DF91CF911F910F91FF90EF90DF90CF903C
:1018B000BF90AF909F908F900895F12CE12CF9CEBE
:1018C000D12CC12C41CFB12CA12C8ECF10929C05D4
:1018D00010929B05E4CF8114910409F0D1CED9CEAA
:1018E0008114910409F421CF8DEF94E08ED860ED3E
:1018F00077E080E090E017CF8114910409F462CF83
:1019000089E295E058CF892809F4B2CF85E595E0C2
:10191000A8CF8F929F92AF92BF92CF92DF92EF9219
:10192000FF920F931F93CF93DF934C0161E087E009
:101930000E94D90361E086E00E94D90385E00E94FD
:10194000B10331E020E0019709F030E0032F122FBE
:1019500061E087E00E94D90360E086E00E94D9033D
:1019600085E00E94B103019711F40F5F1F4F60E003
:1019700087E00E94D90361E086E00E94D90385E0F8
:101980000E94B103019711F40F5F1F4F61E087E0E0
:101990000E94060461E086E00E94060460E085E0A3
:1019A0000E94060460E087E00E94D90360E086E0C0
:1019B0000E94D90385E00E94B103892B09F07CC104
:1019C0000F5F1F4F8114910481F08DE693E0043086
:1019D000110511F080E893E018D868EE73E080E01C
:1019E00090E00E945C040E94EE0461E084E00E94AA
:1019F000D90361E083E00E94D90382E00E94B10331
:101A00007C01E80181E0E816F10409F041C121966A
:101A100061E084E00E94D90360E083E00E94D90382
:101A200082E00E94B103019721F48FEFE81AF80ACF
:101A3000219660E084E00E94D90361E083E00E9487
:101A4000D90382E00E94B103019721F48FEFE81AD5
:101A5000F80A219661E084E00E94060461E083E0D8
:101A60000E94060460E082E00E94060460E084E0D8
:101A70000E94D90360E083E00E94D90382E00E94C3
:101A8000B103892B09F01DC18FEFE81AF80A2196DE
:101A90008114910489F084E0E816F10409F015C17D
:101AA00087E993E00E94050568EE73E080E090E02E
:101AB0000E945C040E94EE0461E08CE10E94D90364
:101AC00061E08EE10E94D90380E20E94B1035C01D3
:101AD00081E0A816B10409F0DEC0219660E08CE137
:101AE0000E94D90361E08EE10E94D90380E20E9446
:101AF000B103019721F48FEFA81AB80A219661E08B
:101B00008CE10E94D90360E08EE10E94D90380E25B
:101B10000E94B103019721F48FEFA81AB80A219609
:101B200061E08CE10E94060461E08EE10E940604FF
:101B300060E080E20E94060460E08CE10E94D9032C
:101B400060E08EE10E94D90380E20E94B103892BFC
:101B500021F48FEFA81AB80A21968114910489F014
:101B600083E0A816B1040CF499C081EC93E00E94C4
:101B7000050568EE73E080E090E00E945C040E943E
:101B8000EE0461E086E10E94D90361E088E10E94F1
:101B9000D9038AE10E94B1036C0181E0C816D10427
:101BA00009F07FC0219661E086E10E94D90360E0E0
:101BB00088E10E94D9038AE10E94B103019721F4D0
:101BC0008FEFC81AD80A219660E086E10E94D903F7
:101BD00061E088E10E94D9038AE10E94B103019784
:101BE00021F48FEFC81AD80A219661E086E10E949D
:101BF000060461E088E10E94060460E08AE10E9438
:101C0000060460E086E10E94D90360E088E10E945A
:101C1000D9038AE10E94B103892B21F48FEFC81AFE
:101C2000D80A2196892881F083E0C816D104E4F10E
:101C30008BEE93E00E94050568EE73E080E090E093
:101C40000E945C040E94EE0428978CF10430110578
:101C500061F084E0E816F10441F084E0A816B104D4
:101C600021F084E0C816D10431F481E090E0909333
:101C7000A00580939F05DF91CF911F910F91FF9059
:101C8000EF90DF90CF90BF90AF909F908F9008958E
:101C9000F12CE12CBDCEB12CA12C20CF84ED93E012
:101CA00066CFD12CC12C7FCF8EEF93E0C3CF1092A3
:101CB000A00510929F05DFCF8114910409F08ACE10
:101CC00094CE8114910409F4F7CE8AEA93E0EACE27
:101CD0008F929F92AF92BF92CF92DF92EF92FF923C
:101CE0000F931F93CF93DF935C0161E087E00E9425
:101CF000D90361E086E00E94D90385E00E94B10328
:101D000031E020E0892B09F030E0032F122F61E051
:101D100087E00E94D90360E086E00E94D90385E055
:101D20000E94B103019711F40F5F1F4F60E087E03D
:101D30000E94D90361E086E00E94D90385E00E94F9
:101D4000B103019711F40F5F1F4F60E087E00E941D
:101D5000D90360E086E00E94D90385E00E94B103C8
:101D6000019709F050C10F5F1F4FA114B10489F012
:101D70008CEB94E00430110511F080ED94E00E94AA
:101D8000050568EE73E080E090E00E945C040E942C
:101D9000EE0461E084E00E94D90361E083E00E94E8
:101DA000D90382E00E94B103E801912C812C892B98
:101DB00021F4219688248394912C61E084E00E9490
:101DC000D90360E083E00E94D90382E00E94B1035E
:101DD000019721F48FEF881A980A219660E084E039
:101DE0000E94D90361E083E00E94D90382E00E944F
:101DF000B103019721F48FEF881A980A219660E0C9
:101E000084E00E94D90360E083E00E94D90382E06D
:101E10000E94B103019709F0FBC08FEF881A980A5E
:101E20002196A114B10489F084E08816910409F088
:101E3000F3C088EE94E00E94050568EE73E080E050
:101E400090E00E945C040E94EE0461E08CE10E943C
:101E5000D90361E08EE10E94D90380E20E94B103C0
:101E6000F12CE12C892B21F42196EE24E394F12C22
:101E700060E08CE10E94D90361E08EE10E94D90309
:101E800080E20E94B103019721F48FEFE81AF80A6B
:101E9000219661E08CE10E94D90360E08EE10E940E
:101EA000D90380E20E94B103019721F48FEFE81A71
:101EB000F80A219660E08CE10E94D90360E08EE18F
:101EC0000E94D90380E20E94B103019709F0A7C0E4
:101ED0008FEFE81AF80A2196A114B10489F084E082
:101EE000E816F10409F09FC084E195E00E94050521
:101EF00068EE73E080E090E00E945C040E94EE04D3
:101F000061E086E10E94D90361E088E10E94D90383
:101F10008AE10E94B103D12CC12C892B21F4219696
:101F2000CC24C394D12C61E086E10E94D90360E007
:101F300088E10E94D9038AE10E94B103019721F44C
:101F40008FEFC81AD80A219660E086E10E94D90373
:101F500061E088E10E94D9038AE10E94B103019700
:101F600021F48FEFC81AD80A219660E086E10E941A
:101F7000D90360E088E10E94D9038AE10E94B1039D
:101F8000019709F053C08FEFC81AD80A2196AB28E1
:101F900089F084E0C816D10409F04AC080E495E0D5
:101FA0000E94050568EE73E080E090E00E945C040A
:101FB0000E94EE04289714F10430110561F084E0CA
:101FC0008816910441F084E0E816F10421F084E0E1
:101FD000C816D10431F481E090E09093A20580937B
:101FE000A105DF91CF911F910F91FF90EF90DF90AE
:101FF000CF90BF90AF909F908F9008951092A205C0
:102000001092A105EECFA114B10409F0B6CEC1CE55
:10201000A114B10409F419CF8CEF94E00CCFA114F2
:10202000B10409F46DCF88E295E060CFAB2811F2DE
:1020300084E595E0B5CF8F929F92AF92BF92CF92F9
:10204000DF92EF92FF920F931F93CF93DF9300D015
:1020500000D000D01F92CDB7DEB78C01D62E5C0128
:102060008EE0A80EB11C9AE0691318C0C5010E9449
:10207000100381E090E02A960FB6F894DEBF0FBE01
:10208000CDBFDF91CF911F910F91FF90EF90DF9027
:10209000CF90BF90AF909F908F900895F8014685A4
:1020A000578560897189C8010E94D50461E0F801F3
:1020B00080850E94D90384EEE82E80E0F82E4AE065
:1020C00050E0B701CE0101967CD48A81D81679F010
:1020D000FAE0EF0EF11C8AE9E81684E0F80679F7D9
:1020E0004AE050E064EE70E0CE0101966AD4C98403
:1020F000DA84F801808991898C0D9D1D85359105C3
:1021000080F0C5010E941003F8014685578560895B
:102110007189C8010E94D50461E0F80180850E94A0
:10212000D903CE0101967C014C018C0C9D1C8E14B0
:102130009F0449F0F7016281C8010E94B504FFEFD6
:10214000EF1AFF0AF4CF60E0C8010E94B504F8015D
:10215000808991890196918B808B8435910530F02F
:10216000C5010E941003F801118A108AF1E0CF1A0C
:10217000D10868F77ECF1F920F920FB60F921124ED
:102180002F933F938F939F93AF93BF9380918D0530
:1021900090918E05A0918F05B091900530918C059E
:1021A00023E0230F2D3758F50196A11DB11D209373
:1021B0008C0580938D0590938E05A0938F05B09329
:1021C00090058091910590919205A0919305B09111
:1021D00094050196A11DB11D8093910590939205E0
:1021E000A0939305B0939405BF91AF919F918F9168
:1021F0003F912F910F900FBE0F901F90189526E8DA
:10220000230F0296A11DB11DD2CFCF93DF93C3EA56
:10221000D5E09885EC81FD81208190959223908373
:102220009E81E881F9812081909592239083482FA7
:102230006A8589850E9490048E81E881F981908168
:10224000892B8083DF91CF910895789484B5826043
:1022500084BD84B5816084BD85B5826085BD85B54A
:10226000816085BD80916E00816080936E001092C8
:102270008100809181008260809381008091810043
:1022800081608093810080918000816080938000D4
:102290008091B10084608093B1008091B000816032
:1022A0008093B00080919100826080939100809132
:1022B0009100816080939100809190008160809373
:1022C00090008091A10082608093A1008091A10084
:1022D00081608093A1008091A00081608093A00024
:1022E0008091210182608093210180912101816090
:1022F0008093210180912001816080932001809151
:102300007A00846080937A0080917A008260809362
:102310007A0080917A00816080937A0080917A00BF
:10232000806880937A001092C1001092A2051092EA
:10233000A1051092A00510929F0510929E05109283
:102340009D0510929C0510929B0510929A05109283
:102350009905109298051092970510929605109283
:10236000950561E085E30E94060461E085E30E9433
:10237000D90361E08FE20E94060460E08FE20E94D0
:10238000D90361E083E30E940604E7EAF5E0E49103
:10239000E150E23108F04DC2F0E08827EE52FE4EE7
:1023A0008F4F18C3E4116C1372137E138A13191420
:1023B00096139F13A813B413C013CC13DD13E913A2
:1023C0001914F51301140D1484B5806884BD8BE4D1
:1023D00087BD61E08BE10E94060461E08BE10E9411
:1023E000D90361E089E10E94060460E089E10E946E
:1023F000D90350E040E070E060E08EEA95E00E9492
:10240000D50400E010E050E040E070E060E08EEACB
:1024100095E00E94D5048CE695E00E94050568EEE3
:1024200073E080E090E00E945C0450E040E061E0F6
:1024300070E08EEA95E00E94D5048AE795E00E945C
:10244000050568EE73E080E090E00E945C040E9465
:10245000EE041092A2051092A1051092A005109210
:102460009F0510929E0510929D0510929C0510925A
:102470009B0510929A05109299051092980510925A
:102480009705109296051092950561E087E00E94ED
:10249000060461E086E00E94060460E085E00E9498
:1024A000060461E084E00E94060461E083E00E948B
:1024B000060460E082E00E94060461E08CE10E9474
:1024C000060461E08EE10E94060460E080E20E9462
:1024D000060461E086E10E94060461E088E10E9452
:1024E000060460E08AE10E94060461E081E00E9447
:1024F000060461E084E20E94060460E081E00E943C
:10250000D90361E084E20E94D90361E080E40E9483
:10251000060461E08FE30E94060461E08EE30E94FE
:10252000060461E080E40E94D90361E08FE30E9429
:10253000D90360E08EE30E94D90360E087E00E9447
:10254000D90360E086E00E94D90385E00E94B103D0
:1025500031E020E0892B09F030E0C32FD22F60E07A
:1025600084E00E94D90360E083E00E94D90382E006
:102570000E94B103892B09F4219660E08CE10E944E
:10258000D90360E08EE10E94D90380E20E94B1038A
:10259000892B09F4219660E086E10E94D90360E06E
:1025A00088E10E94D9038AE10E94B103892B09F4D2
:1025B0002196229764F490E080E08ADB8091A10567
:1025C0009091A205892B19F081E090E081DB90E0E9
:1025D00080E00DD880919B0590919C05892B19F086
:1025E00081E090E004D890E080E00E940D088091A6
:1025F000990590919A05892B21F081E090E00E9445
:102600000D088091990590919A05892B61F490E0CD
:1026100080E07FD980919F059091A005892B19F0CA
:1026200081E090E076D98091A1059091A205892B57
:1026300081F590E080E00E94940980919D05909141
:102640009E05892B21F081E090E00E949409809101
:10265000990590919A05892B71F490E080E00E9491
:102660007A068091970590919805892B21F081E059
:1026700090E00E947A0690E080E00E94110580912F
:10268000950590919605892B21F081E090E00E94BC
:1026900011051092A2051092A1051092A0051092AA
:1026A0009F0510929E0510929D0510929C05109218
:1026B0009B0510929A051092990510929805109218
:1026C000970510929605109295050115110509F4CC
:1026D0009ACE0E94000097CE84B5806284BD8BE4C0
:1026E00088BD77CE809180008068809380008BE4E5
:1026F00090E090938900809388006BCE8091800059
:102700008062809380008BE490E090938B008093B4
:102710008A005FCE809180008860809380008BE487
:1027200090E090938D0080938C0053CE8091B00008
:1027300080688093B0008BE48093B3004ACE809190
:10274000B00080628093B0008BE48093B40041CEEF
:10275000809190008068809390008BE490E090934B
:1027600099008093980035CE80919000806280938C
:1027700090008BE490E090939B0080939A0029CE88
:10278000809190008860809390008BE490E090931B
:102790009D0080939C001DCE8091A0008068809356
:1027A000A0008091A0008F7B8093A0008BE490E03C
:1027B0009093A9008093A8000CCE8091A000806225
:1027C0008093A0008BE490E09093AB008093AA00EC
:1027D00000CE8091A00088608093A0008BE490E000
:1027E0009093AD008093AC00F4CD8091200180687F
:1027F000809320018BE490E090932901809328013D
:10280000E8CD809120018062809320018BE490E0EC
:1028100090932B0180932A01DCCD80912001886068
:10282000809320018BE490E090932D0180932C0104
:10283000D0CD60E083E30E94D903CBCDCF93DF936B
:10284000EDE2F5E0E491F0E0EE0FFF1FEC54FB4FFA
:1028500085919491C3EAD5E099838883ECE2F5E011
:10286000E491F0E0EE0FFF1FEC54FB4F8591949143
:102870009B838A83EBE2F5E0E491F0E0EE0FFF1F2B
:10288000EC54FB4F859194919D838C83E3E7F5E0B5
:10289000E491EE83E2E7F5E0E491EF83E1E7F5E030
:1028A000E491E88761E085E40E94060461E084E445
:1028B0000E94060461E083E40E94060461E082E471
:1028C0000E94060461E081E40E94060482E4898794
:1028D00081E48A878F81EA81FB81908180958923B9
:1028E00080838F81EA81FB819081892B808381E2C3
:1028F0008CDC89EB8ADC84E088DC84E186DC8CE09B
:1029000084DC80E282DC8CE080DCCEEAD5E01B82D5
:102910001A8284E092E0998388831F861E86198A32
:10292000188A85E490E09D838C8384E490E09F8303
:102930008E8383E490E09987888782E490E09B8788
:102940008A8781E490E09D878C8761E085E40E941E
:10295000060461E084E40E94060461E083E40E94CE
:10296000060461E082E40E94060461E081E40E94C2
:1029700006041F861E86198A188A60E08C810E94D0
:10298000D90361E08C810E94D9030E94EE0460E2C9
:10299000CE010E94C7046CE0CE010E94C70461E230
:1029A000CE010E94C70464E1CE010E94C70461E227
:1029B000CE010E94C7046CEBCE01DF91CF910C9445
:1029C000C704FB01DC0102C005900D92415050404C
:1029D000D8F70895EE0FFF1F881F8BBF0790F69161
:0829E000E02D1994F894FFCFDB
:1029E800000000001B101D038D048C044445434F58
:1029F8004445522067617465203120776F726B6996
:102A08006E67004445434F44455220676174652012
:102A1800312D6E6F7420574F524B494E4700444535
:102A2800434F4445522067617465203220776F72A6
:102A38006B696E67004445434F4445522067617493
:102A4800652032206E6F7420574F524B494E470015
:102A58006E6F742067617465203120574F524B495F
:102A68004E47006E6F7420676174652031206E6F69
:102A78007420574F524B494E47006E6F7420676160
:102A88007465203220574F524B494E47006E6F7481
:102A980020676174652032206E6F7420574F524B47
:102AA800494E47006E6F7420676174652033205764
:102AB8004F524B494E47006E6F7420676174652012
:102AC80033206E6F7420574F524B494E47006E6F3C
:102AD800742067617465203420574F524B494E4724
:102AE800006E6F7420676174652034206E6F7420E7
:102AF800574F524B494E47006E6F7420676174659B
:102B0800203520574F524B494E47006E6F7420674F
:102B18006174652035206E6F7420574F524B494EB3
:102B280047006E6F742067617465203620574F52D6
:102B38004B494E47006E6F742067617465203620DC
:102B48006E6F7420574F524B494E47004E4F5220DC
:102B58006761746520312D574F524B494E47004EDF
:102B68004F52206761746520312D6E6F7420574F66
:102B7800524B494E47004E4F5220676174652032D0
:102B88002D574F524B494E47004E4F5220676174A4
:102B98006520322D6E6F7420574F524B494E4700B7
:102BA8004E4F52206761746520332D574F524B4961
:102BB8004E47004E4F52206761746520332D6E6F6B
:102BC8007420574F524B494E47004E4F5220676171
:102BD800746520342D574F524B494E47004E4F5283
:102BE800206761746520342D6E6F7420574F524BE7
:102BF800494E4700584F52206761746520312D5760
:102C08004F524B494E4700584F5220676174652018
:102C1800312D6E6F7420574F524B494E4700584F15
:102C280052206761746520322D574F524B494E47E9
:102C380000584F52206761746520322D6E6F7420E2
:102C4800574F524B494E4700584F522067617465A1
:102C580020332D574F524B494E4700584F5220674B
:102C680061746520332D6E6F7420574F524B494E57
:102C78004700584F52206761746520342D574F52D2
:102C88004B494E4700584F52206761746520342DD8
:102C98006E6F7420574F524B494E47004E414E4479
:102CA800206761746520312D574F524B494E4700BC
:102CB8004E414E44206761746520312D6E6F74203B
:102CC800574F524B494E47004E414E44206761745E
:102CD8006520322D574F524B494E47004E414E44C6
:102CE800206761746520322D6E6F7420574F524BE8
:102CF800494E47004E414E44206761746520332D8C
:102D0800574F524B494E47004E414E44206761741D
:102D18006520332D6E6F7420574F524B494E470034
:102D28006E616E64206761746520342D574F524B75
:102D3800494E47004E414E44206761746520342D4A
:102D48006E6F7420574F524B494E470049432054E9
:102D5800455354455220627920004D2E4841535323
:0C2D6800414E20262052415A5A490000DA
:020000023000CC
:10E000000D9489F10D94B2F10D94B2F10D94B2F129
:10E010000D94B2F10D94B2F10D94B2F10D94B2F1F0
:10E020000D94B2F10D94B2F10D94B2F10D94B2F1E0
:10E030000D94B2F10D94B2F10D94B2F10D94B2F1D0
:10E040000D94B2F10D94B2F10D94B2F10D94B2F1C0
:10E050000D94B2F10D94B2F10D94B2F10D94B2F1B0
:10E060000D94B2F10D94B2F10D94B2F10D94B2F1A0
:10E070000D94B2F10D94B2F10D94B2F10D94B2F190
:10E080000D94B2F10D94B2F10D94B2F10D94B2F180
:10E090000D94B2F10D94B2F10D94B2F10D94B2F170
:10E0A0000D94B2F10D94B2F10D94B2F10D94B2F160
:10E0B0000D94B2F10D94B2F10D94B2F10D94B2F150
:10E0C0000D94B2F10D94B2F10D94B2F10D94B2F140
:10E0D0000D94B2F10D94B2F10D94B2F10D94B2F130
:10E0E0000D94B2F141546D656761323536300041AF
:10E0F000726475696E6F206578706C6F72657220DE
:10E1000073746B3530305632206279204D4C530099
:10E11000426F6F746C6F616465723E004875683F52
:10E1200000436F6D70696C6564206F6E203D200048
:10E130004350552054797065202020203D20005FF9
:10E140005F4156525F415243485F5F3D2000415658
:10E1500052204C696243205665723D20004743437C
:10E160002056657273696F6E203D20004350552024
:10E1700049442020202020203D20004C6F7720663D
:10E18000757365202020203D20004869676820665F
:10E190007573652020203D200045787420667573D6
:10E1A00065202020203D20004C6F636B2066757336
:10E1B000652020203D20004D617220203720323024
:10E1C000313300312E362E3800342E332E350056A2
:10E1D00023202020414444522020206F7020636F70
:10E1E00064652020202020696E73747275637469E1
:10E1F0006F6E2061646472202020496E74657272B3
:10E20000757074006E6F20766563746F7200726A49
:10E210006D702020006A6D70200057686174207056
:10E220006F72743A00506F7274206E6F7420737541
:10E2300070706F72746564004D7573742062652030
:10E2400061206C6574746572002000577269747483
:10E25000696E672045450052656164696E672045B7
:10E26000450045452065727220636E743D00504F35
:10E27000525400303D5A65726F2061646472003FF1
:10E280003D43505520737461747300403D454550C3
:10E29000524F4D207465737400423D426C696E6B41
:10E2A000204C454400453D44756D70204545505215
:10E2B0004F4D00463D44756D7020464C415348001B
:10E2C000483D48656C70004C3D4C69737420492F83
:10E2D0004F20506F72747300513D51756974005234
:10E2E0003D44756D702052414D00563D73686F7707
:10E2F00020696E7465727275707420566563746FF0
:10E30000727300593D506F727420626C696E6B00BD
:10E310002A0011241FBECFEFD1E2DEBFCDBF01E046
:10E320000CBF12E0A0E0B2E0EEE1FDEF03E00BBFB6
:10E3300002C007900D92A030B107D9F712E0A0E01B
:10E34000B2E001C01D92AE30B107E1F70F9460F367
:10E350000D948DFE01E20EBF0FEF0DBF11241FBE05
:10E360000D9460F30D9400F020E030E040ED57E0B4
:10E3700005C0FA013197F1F72F5F3F4F2817390792
:10E38000C0F308959C01260F311DC901A0E0B0E043
:10E390002F5F3F4FABBFFC018791882361F08093D3
:10E3A000C6008091C00086FFFCCF8091C0008064D1
:10E3B0008093C000EACF08958DE08093C6008091DD
:10E3C000C00086FFFCCF8091C00080648093C000B5
:10E3D0008AE08093C6008091C00086FFFCCF8091C8
:10E3E000C00080648093C00008950F94C2F10F9420
:10E3F000DCF10895FC019081992359F09093C600B7
:10E400008091C00086FFFCCF8091C0008064809323
:10E41000C0003196992379F70895282F982F929567
:10E420009F70892F805D8A3308F0895F8093C600D2
:10E430008091C00086FFFCCF8091C00080648093F3
:10E44000C000822F8F70982F905D9A3308F0995FEB
:10E450009093C6008091C00086FFFCCF8091C000E1
:10E4600080648093C00008959C01FB01853691056E
:10E470001CF46330710594F0C90164E670E00F94F8
:10E480002EFE605D7F4F6093C6008091C00086FFC6
:10E49000FCCF8091C00080648093C0002B30310598
:10E4A00014F43297B4F0C90164E670E00F942EFEC4
:10E4B0006AE070E00F942EFE605D7F4F6093C600AF
:10E4C0008091C00086FFFCCF8091C0008064809363
:10E4D000C000C9016AE070E00F942EFEC0968093E0
:10E4E000C6008091C00086FFFCCF8091C000806490
:10E4F0008093C00008951F93182F8EE692EE60E07F
:10E500000F94C2F11093C6008091C00086FFFCCF2B
:10E510008091C00080648093C0000F94DCF11F9153
:10E5200008952F923F924F925F926F927F928F92B7
:10E530009F92AF92BF92CF92DF92EF92FF920F9392
:10E540001F93DF93CF93CDB7DEB762970FB6F894E2
:10E55000DEBF0FBECDBF382E622ECA01DB015C01CB
:10E560006D01772420E2222E2E010894411C511CBB
:10E570008BC081E0A81680E0B80681E0C80680E084
:10E58000D80628F0C601AA27BB270F940DF2BB2797
:10E59000AD2D9C2D8B2D0F940DF28A2D0F940DF225
:10E5A0002092C6008091C00086FFFCCF8091C00001
:10E5B00080648093C0009DE29093C6008091C0006B
:10E5C00086FFFCCF8091C00080648093C0002092C1
:10E5D000C6008091C00086FFFCCF8091C00080649F
:10E5E0008093C00019828601750188249924A1E0D6
:10E5F0003A1651F03A1620F0B2E03B1661F409C029
:10E600000BBFF701779007C0C7010F9477FE782EF4
:10E6100002C0F7017080872D0F940DF22092C60082
:10E620008091C00086FFFCCF8091C0008064809301
:10E63000C000872D8052F401EF70F0708F3520F408
:10E64000E40DF51D708204C0E40DF51D8EE280839B
:10E650000894E11CF11C011D111D0894811C911CE2
:10E6600090E18916910409F0C2CF80E190E0A0E02A
:10E67000B0E0A80EB91ECA1EDB1E198AC2010F9493
:10E68000FAF10F94DCF16A94662009F072CF629679
:10E690000FB6F894DEBF0FBECDBFCF91DF911F91B3
:10E6A0000F91FF90EF90DF90CF90BF90AF909F9031
:10E6B0008F907F906F905F904F903F902F90089534
:10E6C0002F923F924F925F926F927F928F929F9282
:10E6D000AF92BF92CF92DF92EF92FF920F931F9370
:10E6E000DF93CF93CDB7DEB7CD53D1400FB6F894BB
:10E6F000DEBF0FBECDBF01E20EBF0FEF0DBF94B75F
:10E70000F894A89514BE80916000886180936000A1
:10E7100010926000789493FF05C0E0910002F091A0
:10E7200001021995279A2F9A8091C00082608093E8
:10E73000C00080E18093C40088E18093C1000000A4
:10E74000EE24FF24870144E0A42EB12CCC24DD2448
:10E7500024C0C5010197F1F70894E11CF11C011DCB
:10E76000111D21E2E2162EE4F20620E0020720E06D
:10E77000120718F031E0C32ED12CC801B70127ECE5
:10E780003BE140E050E00F9441FE611571058105C9
:10E79000910519F485B1805885B98091C00087FD35
:10E7A00003C0C114D104A9F2A6014F5F5F4FC25E3E
:10E7B000DE4F59834883CE51D140C25EDE4F8881FF
:10E7C0009981CE51D140019711F00D9410FEC05D9A
:10E7D000DE4F19821882C053D14060E0C15DDE4F28
:10E7E0001882CF52D14088249924C35DDE4F19820C
:10E7F0001882CD52D140C05EDE4F188219821A8233
:10E800001B82C052D140CE5CDE4F188219821A8220
:10E810001B82C253D140EE24FF2487010BBFF701B6
:10E8200007911691C45CDE4F19830883CC53D14005
:10E830000D940BFEC25EDE4F28813981CE51D1404E
:10E840002130310509F52091C600C25EDE4F1982E4
:10E850001882CE51D14022C02F5F3F4F4F4F5F4FA4
:10E86000213082E138078AE7480780E0580780F0C6
:10E87000C45CDE4FE881F981CC53D140EF5FFF4F9C
:10E8800019F0EE27FF27099420E030E040E050E047
:10E890008091C00087FFE0CF2091C600C35DDE4FAE
:10E8A00048815981CD52D1404F5F5F4FC35DDE4FEC
:10E8B00059834883CD52D140213209F063C64A3092
:10E8C000510508F05FC60894811C911C53E0851621
:10E8D000910409F059C600E010E018C081E280936D
:10E8E000C6008091C00086FFFCCF8091C00080648C
:10E8F0008093C0002F5F3F4F2931310579F70F9486
:10E90000DCF10F5F1F4F0530110519F020E030E0FA
:10E91000E5CF10920A0210920B0210920C02109294
:10E920000D02109206021092070210920802109235
:10E930000902109202021092030210920402109235
:10E9400005028FEE90EE60E00F94F5F180E191EE1C
:10E9500060E00F94C2F18091C00087FFFCCF9091DE
:10E96000C600903608F09F759032B8F09093C600BC
:10E970008091C00086FFFCCF8091C00080648093AE
:10E98000C000A0E2A093C6008091C00086FFFCCF2B
:10E990008091C00080648093C000983409F4D7C18E
:10E9A0009934B8F4923409F459C1933458F490333B
:10E9B00019F1903308F4E3C59F33A1F1903409F0C5
:10E9C000DEC5BDC0953409F470C1963409F0D7C5D1
:10E9D00098C1923509F42BC2933538F49C3409F46C
:10E9E000F5C1913509F0CBC518C2963509F445C279
:10E9F000993509F0C4C567C483E792EE62E00F94CD
:10EA0000F5F110920602109207021092080210927D
:10EA1000090210920A0210920B0210920C0210923C
:10EA20000D0213C18FE792EE62E00F94F5F18FEEC5
:10EA300090EE60E00F94F5F181E291EE60E00F94CA
:10EA4000C2F187EB91EE60E00F94F5F180E391EE77
:10EA500060E00F94C2F184EE90EE60E00F94F5F167
:10EA60008FE391EE60E00F94C2F186E090E061E008
:10EA700070E00F9434F20F94DCF18DE591EE60E0DC
:10EA80000F94C2F189EC91EE60E00F94F5F18EE401
:10EA900091EE60E00F94C2F183EC91EE60E00F9490
:10EAA000F5F18CE691EE60E00F94C2F18EE10F94E7
:10EAB0000DF288E90F940DF281E00F940DF20F949E
:10EAC000DCF18BE791EE60E00F94C2F119E0E0E039
:10EAD000F0E010935700E4918E2F0F940DF20F94F5
:10EAE000DCF18AE891EE60E00F94C2F1E3E0F0E03F
:10EAF00010935700E4918E2F0F940DF20F94DCF1D8
:10EB000089E991EE60E00F94C2F1E2E0F0E0109349
:10EB10005700E4918E2F0F940DF20F94DCF188EAE8
:10EB200091EE60E00F94C2F1E1E0F0E01093570045
:10EB30001491812F0F940DF20F94DCF107CF8BE825
:10EB400092EE62E00F94F5F18BE492EE60E00F94A8
:10EB5000F5F10F94DCF100E010E019C0C8016F2D51
:10EB60000F947FFEFF2031F489E492EE60E00F9471
:10EB7000C2F10BC0F092C6008091C00086FFFCCFAE
:10EB80008091C00080648093C0000F5F1F4FC80158
:10EB900081519F41A0E0B0E0ABBFFC01F790BAE229
:10EBA000FB1621F0E2E000301E07C1F60F94DCF105
:10EBB0000F94DCF187E592EE60E00F94F5F10F948D
:10EBC000DCF1CC24DD2400E010E01EC0C8010F946D
:10EBD00077FEF82E882331F489E492EE60E00F94FA
:10EBE000C2F10BC08093C6008091C00086FFFCCFAD
:10EBF0008091C00080648093C000FE1419F00894D6
:10EC0000C11CD11C0F5F1F4FC80181519F41A0E063
:10EC1000B0E0ABBFFC01E790FAE2EF1621F022E092
:10EC20000030120799F60F94DCF10F94DCF182E6C4
:10EC300092EE60E00F94C2F1C60161E070E00F94C3
:10EC400034F20F94DCF10F94DCF110920202109276
:10EC50000302109204021092050278CE89E992EE26
:10EC600062E00F94F5F1279A2F9A16C02F9880E052
:10EC700090E0E0EDF7E03197F1F7019684369105E9
:10EC8000C1F72F9A80E090E0E0EDF7E03197F1F7DF
:10EC9000019684369105C1F78091C00087FFE6CFC9
:10ECA0008091C00087FFFCCF64C485EA92EE62E0E9
:10ECB0000F94F5F140910202509103026091040219
:10ECC0007091050281E020E10F9491F2809102029F
:10ECD00090910302A0910402B091050280509F4FD1
:10ECE000AF4FBF4F8093020290930302A0930402A0
:10ECF000B093050280509041A040B04008F426CE69
:10ED0000A4CF83EB92EE62E00F94F5F140910602FE
:10ED100050910702609108027091090280E020E1A1
:10ED20000F9491F28091060290910702A09108023F
:10ED3000B091090280509F4FAF4FBF4F80930602A2
:10ED400090930702A0930802B0930902FFCD80ECD4
:10ED500092EE62E00F94F5F183E792EE60E00F949B
:10ED6000F5F18FE792EE60E00F94F5F18BE892EE0B
:10ED700060E00F94F5F189E992EE60E00F94F5F10F
:10ED800085EA92EE60E00F94F5F183EB92EE60E09D
:10ED90000F94F5F180EC92EE60E00F94F5F187ECC2
:10EDA00092EE60E00F94F5F188ED92EE60E00F9442
:10EDB000F5F18FED92EE60E00F94F5F18AEE92EEB0
:10EDC00060E00F94F5F183E093EEBDCD87EC92EE19
:10EDD00062E00F94F5F181E40F947BF282E40F94EA
:10EDE0007BF283E40F947BF284E40F947BF285E45E
:10EDF0000F947BF286E40F947BF287E40F947BF20E
:10EE000088E40F947BF28AE40F947BF28BE40F94F6
:10EE10007BF28CE40F947BF299CD88ED92EE62E068
:10EE20000F94F5F1772473948824992409C48FED05
:10EE300092EE62E00F94F5F140910A0250910B02BC
:10EE400060910C0270910D0282E020E10F9491F22A
:10EE500080910A0290910B02A0910C02B0910D02D8
:10EE600080509F4FAF4FBF4F80930A0290930B0289
:10EE7000A0930C02B0930D0269CD8AEE92EE62E08F
:10EE80000F94F5F184EE90EE60E00F94F5F18FECC5
:10EE900091EE60E00F94F5F1662477244301CC5D98
:10EEA000DE4F19821882C452D140D401C301B695F5
:10EEB000A79597958795CA5DDE4F88839983AA8326
:10EEC000BB83C652D140CC5DDE4FA881B981C4520C
:10EED000D1401196CC5DDE4FB983A883C452D14096
:10EEE000CD0162E070E00F9434F2B0E2B093C6005E
:10EEF0008091C00086FFFCCF8091C0008064809329
:10EF0000C000EDE2E093C6008091C00086FFFCCF18
:10EF10008091C00080648093C000F0E2F093C6004E
:10EF20008091C00086FFFCCF8091C00080648093F8
:10EF3000C000CA5DDE4FE880F9800A811B81C6529D
:10EF4000D140BB27A12F902F8F2D0F940DF2CA5DBA
:10EF5000DE4F8881C652D1400F940DF2B0E2FB2EF5
:10EF6000F092C6008091C00086FFFCCF8091C00067
:10EF700080648093C0000DE30093C6008091C000C0
:10EF800086FFFCCF8091C00080648093C00010E2B7
:10EF90001093C6008091C00086FFFCCF8091C00016
:10EFA00080648093C0008BBEF3012791C65DDE4F65
:10EFB0002883CA52D140A22EBB24CC24DD2408943D
:10EFC000611C711C811C911C8BBEF3018791282E42
:10EFD0003324442455240894611C711C811C911C09
:10EFE0008BBEF3013791C55DDE4F3883CB52D140E4
:10EFF0000894611C711C811C911C8BBEF30147910C
:10F00000C45DDE4F4883CC52D140ADEFEA2EAFEF66
:10F01000FA2EAFEF0A2FAFEF1A2F6E0C7F1C801E57
:10F02000911E142D032DF22CEE24EA0CFB1C0C1D5A
:10F030001D1D0F940DF220E22093C6008091C000A8
:10F0400086FFFCCF8091C00080648093C000C65DC5
:10F05000DE4F8881CA52D1400F940DF230E23093D6
:10F06000C6008091C00086FFFCCF8091C000806404
:10F070008093C000C45DDE4F8881CC52D1400F9494
:10F080000DF240E24093C6008091C00086FFFCCFA5
:10F090008091C00080648093C000C55DDE4F888190
:10F0A000CB52D1400F940DF250E25093C6008091A4
:10F0B000C00086FFFCCF8091C00080648093C000B8
:10F0C0008FEFE8168FEFF80680E0080780E018075A
:10F0D00031F484E092EE60E00F94C2F1DFC0D80119
:10F0E000C7018070907CA070B0708050904CA040A0
:10F0F000B040D1F52FEF3FE340E050E0E222F322B1
:10F1000004231523CA5DDE4FA880B980CA80DB8046
:10F11000C652D140AE0CBF1CC01ED11EAA0CBB1CD7
:10F12000CC1CDD1C8EE092EE60E00F94C2F1BB2798
:10F13000A12F902F8F2D0F940DF28E2D0F940DF285
:10F1400030E23093C6008091C00086FFFCCF8091F2
:10F15000C00080648093C0004EE34093C60080915D
:10F16000C00086FFFCCF87C08EE09EEFA0E0B0E03D
:10F17000E822F9220A231B239CE0E91694E9F90608
:10F1800090E0090790E0190709F088C0C45DDE4FE0
:10F19000A881CC52D140EA2EFF2400E010E0102FCD
:10F1A0000F2DFE2CEE24C55DDE4FB881CB52D14031
:10F1B000EB0EF11C011D111DD601C501817090706F
:10F1C000A070B070DC0199278827E80EF91E0A1F8D
:10F1D0001B1F20EF30E040E050E0A222B322C42207
:10F1E000D52241E1AA0CBB1CCC1CDD1C4A95D1F7F1
:10F1F000EA0CFB1C0C1D1D1D81E090E0A0E0B0E0BE
:10F20000282239224A225B2235E1220C331C441C7D
:10F21000551C3A95D1F7E20CF31C041D151D57013E
:10F220006801AA0CBB1CCC1CDD1C85E192EE60E0E1
:10F230000F94C2F1C801AA27BB270F940DF2BB2778
:10F24000A12F902F8F2D0F940DF28E2D0F940DF274
:10F2500090E29093C6008091C00086FFFCCF809121
:10F26000C00080648093C000AEE3A093C60080918C
:10F27000C00086FFFCCF8091C00080648093C000F6
:10F28000C601AA27BB270F940DF2BB27AD2D9C2DDD
:10F290008B2D0F940DF28A2D0F940DF20F94DCF14B
:10F2A000CC5DDE4FE881F981C452D140F99709F471
:10F2B0004DCBF4E0EF2EF12C012D112D6E0C7F1CA7
:10F2C000801E911EF2CD83E093EE62E00F94F5F183
:10F2D0008AE192EE60E00F94C2F18091C00087FF56
:10F2E000FCCF1091C6001F751093C6008091C0001E
:10F2F00086FFFCCF8091C00080648093C0000F9493
:10F30000DCF1812F81548A3108F036C1163409F4BA
:10F3100095C0173490F4133409F44EC0143430F40B
:10F320001134F1F0123409F01DC130C0143409F465
:10F3300059C0153409F016C16BC01A3409F4C4C0A1
:10F340001B3438F4173409F48FC0183409F00AC19B
:10F35000A1C01B3409F4D2C01C3409F003C1E8C0B9
:10F360008FEF81B90DC082B1809582B980E090E0C5
:10F37000E0EDF7E03197F1F70196883C9105C1F790
:10F380008091C00087FFEFCF12B8EFC08FEF84B934
:10F390000DC085B1809585B980E090E0E0EDF7E0A3
:10F3A0003197F1F70196883C9105C1F78091C00033
:10F3B00087FFEFCF15B8D9C08FEF87B90DC088B1DF
:10F3C000809588B980E090E0E0EDF7E03197F1F7C3
:10F3D0000196883C9105C1F78091C00087FFEFCF6F
:10F3E00018B8C3C08FEF8AB90DC08BB180958BB9A7
:10F3F00080E090E0E0EDF7E03197F1F70196883C8E
:10F400009105C1F78091C00087FFEFCF1BB8ADC059
:10F410008FEF8DB90DC08EB180958EB980E090E0F0
:10F42000E0EDF7E03197F1F70196883C9105C1F7DF
:10F430008091C00087FFEFCF1EB897C08FEF80BBD1
:10F440000DC081B3809581BB80E090E0E0EDF7E0F6
:10F450003197F1F70196883C9105C1F78091C00082
:10F4600087FFEFCF11BA81C08FEF83BB0DC084B38C
:10F47000809584BB80E090E0E0EDF7E03197F1F714
:10F480000196883C9105C1F78091C00087FFEFCFBE
:10F4900014BA6BC08FEF809301010FC080910201FD
:10F4A00080958093020180E090E0E0EDF7E03197F5
:10F4B000F1F70196883C9105C1F78091C00087FF64
:10F4C000EDCF1092020151C08FEF809304010FC065
:10F4D0008091050180958093050180E090E0E0ED4A
:10F4E000F7E03197F1F70196883C9105C1F78091DB
:10F4F000C00087FFEDCF1092050137C08FEF8093DA
:10F5000007010FC08091080180958093080180E079
:10F5100090E0E0EDF7E03197F1F70196883C910536
:10F52000C1F78091C00087FFEDCF109208011DC088
:10F530008FEF80930A010FC080910B01809580931B
:10F540000B0180E090E0E0EDF7E03197F1F70196F4
:10F55000883C9105C1F78091C00087FFEDCF1092E4
:10F560000B0103C085E292EEEEC98091C00087FFD7
:10F57000FCCF8091C600EAC988E392EEE4C98CE131
:10F5800091EEE1C988249924933011F1943028F444
:10F59000913089F09230B8F408C0953061F195301F
:10F5A000F0F0963009F048C043C02B3109F042C951
:10F5B00091E06BE13FC96227C15DDE4F2883CF52E6
:10F5C000D14092E037C9B22FA0E0622793E032C960
:10F5D000822F90E0A82BB92B622794E02BC92E3004
:10F5E00009F039C3622795E0C05DDE4F19821882A9
:10F5F000C053D1401FC9E1E0F0E0EC0FFD1FC05D3A
:10F60000DE4F08811981C053D140E00FF11F2083E4
:10F610000F5F1F4FC05DDE4F19830883C053D14079
:10F6200062270A171B0709F005C9D80196E002C92D
:10F63000261709F010C303C0973009F0FBC87724E0
:10F640009981933109F412C19431C8F4963009F4C8
:10F65000D8C0973050F4923009F406C1933009F4C1
:10F660006DC0913009F059C253C0913109F477C08F
:10F67000923108F0BBC0903109F04FC2F5C098310B
:10F6800009F487C0993150F4953109F4EFC09531F0
:10F6900008F4C6C1963109F040C2C2C19A3109F4DA
:10F6A0006CC09A3108F491C09B3109F45BC09D3164
:10F6B00009F033C29D81903359F48F81882311F46E
:10F6C0009EE11CC0813011F091E018C098E916C08D
:10F6D000892F807591F0903539F4E0E0F0E089E011
:10F6E0008093570094910AC0983539F4E3E0F0E034
:10F6F00089E080935700949101C090E01A821B82A8
:10F700008D818C831D829E831F8227E030E009C299
:10F710001A8288E08B8381E48C8386E58D8382E581
:10F720008E8389E48F8383E5888780E589878FE5E9
:10F730008A8782E38B872BE030E0F3C18A818139AD
:10F7400041F0823941F0803911F48FE005C080E04A
:10F7500003C082E001C08AE01A828B8344C0772410
:10F76000739482C08D81882311F48EE12CC0813086
:10F7700011F081E028C088E926C01A82E1E0F0E0BB
:10F7800089E08093570084918B831C8224E030E0D1
:10F79000C8C18B81803589F48C81883039F4E2E0EE
:10F7A000F0E089E08093570084910DC0E0E0F0E044
:10F7B00089E080935700849106C0E3E0F0E089E09F
:10F7C0008093570084911A82DFCF8D81836C99E0FA
:10F7D000E1E0F0E0082E90935700E89507B600FCB2
:10F7E000FDCF1A821B8223E030E09BC180EC8A832C
:10F7F000CE5CDE4F188219821A821B82C253D1401E
:10F800008EC18A8190E0A0E0B0E0582F44273327D2
:10F8100022278B8190E0A0E0B0E0DC0199278827C7
:10F82000282B392B4A2B5B2B8D8190E0A0E0B0E098
:10F83000282B392B4A2B5B2B8C8190E0A0E0B0E089
:10F84000BA2FA92F982F8827282B392B4A2B5B2BCF
:10F85000220F331F441F551FC05EDE4F288339839C
:10F860004A835B83C052D1401A8259C13A81C95C34
:10F87000DE4F3883C753D140CA5CDE4F1882C6536F
:10F88000D1408B81C82EDD24CA5CDE4F488159816E
:10F89000C653D140C42AD52A933109F082C0CE5C28
:10F8A000DE4F88819981AA81BB81C253D1408050AB
:10F8B000904CA340B04030F583E0CE5CDE4FE88052
:10F8C000F9800A811B81C253D140F70100935B008C
:10F8D00080935700E89507B600FCFDCFCE5CDE4F65
:10F8E000088119812A813B81C253D14000501F4FAA
:10F8F0002F4F3F4FCE5CDE4F088319832A833B8313
:10F90000C253D140C05EDE4F488159816A817B81FC
:10F91000C052D140DE011B9631E08C9111962C91A2
:10F9200011971296C75CDE4F2883C953D140C85C3B
:10F93000DE4F1882C853D14090E0C85CDE4FE881AA
:10F94000F981C853D1408E2B9F2B0C01FA01609393
:10F950005B0030935700E89511244E5F5F4F6F4F67
:10F960007F4F0EEFE02E0FEFF02ECE0CDF1CC114F8
:10F97000D10499F685E0C05EDE4F088119812A81A5
:10F980003B81C052D140F80120935B008093570027
:10F99000E89507B600FCFDCF81E180935700E8951C
:10F9A00035C0C05EDE4F88819981AA81BB81C0527B
:10F9B000D140B695A795979587957C018601ABE0D8
:10F9C000AA2EB12CAC0EBD1E0BC0D5016D915D01F0
:10F9D000C7010F947FFE0894E11CF11C01501040F8
:10F9E0000115110591F7A60160E070E0440F551F65
:10F9F000661F771FC05EDE4FE880F9800A811B8199
:10FA0000C052D1404E0D5F1D601F711F1A82C05E33
:10FA1000DE4F488359836A837B83C052D1407FC0C5
:10FA2000FA80C55CDE4FF882CB53D140C65CDE4F16
:10FA30001882CA53D1408B81C82EDD24C65CDE4FAC
:10FA400008811981CA53D140C02AD12A1A828981DA
:10FA5000BE016D5F7F4F843121F59601C05EDE4FA0
:10FA6000E880F9800A811B81C052D1400BBFF701A9
:10FA700087919691DB018C9311969C936E5F7F4FDB
:10FA8000D801C7010296A11DB11DC05EDE4F88835B
:10FA90009983AA83BB83C052D14022503040F1F6F3
:10FAA00036C0C05EDE4F288139814A815B81C052F9
:10FAB000D1400894C108D108760100E010E0089414
:10FAC000C11CD11C0894E11CF11C011D111DE20E8A
:10FAD000F31E041F151F21BDBB27A52F942F832FB5
:10FAE00082BD2F5F3F4F4F4F5F4FF89A80B5DB01CC
:10FAF0008D93BD012E153F054007510761F7C05E8C
:10FB0000DE4F288339834A835B83C052D1409601FC
:10FB10002D5F3F4FFB01108204C080EC8A8322E0FE
:10FB200030E08BE18093C6008091C00086FFFCCF5F
:10FB30008091C00080648093C000C15DDE4FF88179
:10FB4000CF52D140F093C6008091C00086FFFCCF19
:10FB50008091C00080648093C000432F3093C60022
:10FB60008091C00086FFFCCF8091C00080648093AC
:10FB7000C000922F2093C6008091C00086FFFCCF6A
:10FB80008091C00080648093C0008EE08093C600A6
:10FB90008091C00086FFFCCF8091C000806480937C
:10FBA000C00065E1C15DDE4FE880CF52D1406E25D7
:10FBB00069276427FE01319610C090819093C6009A
:10FBC0008091C00086FFFCCF31968091C000806498
:10FBD0008093C0006927215030402115310569F715
:10FBE0006093C6008091C00086FFFCCF8091C0006A
:10FBF00080648093C00085B1805885B9772081F4F6
:10FC0000C15DDE4F0881CF52D1400F5FC15DDE4F35
:10FC10000883CF52D14090E0A0E0B0E00D941AF4F8
:10FC200027982F9880E090E020ED37E0F901319798
:10FC3000F1F7019684369105C9F700008091C00064
:10FC40008D7F8093C00081E180935700E895EE2777
:10FC5000FF270994FFCF90E00D941AF497FB092E2B
:10FC600007260AD077FD04D02ED006D000201AF443
:10FC7000709561957F4F0895F6F7909581959F4F08
:10FC80000895A1E21A2EAA1BBB1BFD010DC0AA1FDD
:10FC9000BB1FEE1FFF1FA217B307E407F50720F0F5
:10FCA000A21BB30BE40BF50B661F771F881F991F70
:10FCB0001A9469F760957095809590959B01AC01B9
:10FCC000BD01CF010895AA1BBB1B51E107C0AA1FAC
:10FCD000BB1FA617B70710F0A61BB70B881F991FED
:10FCE0005A95A9F780959095BC01CD010895F99991
:10FCF000FECF92BD81BDF89A992780B50895262F31
:10FD0000F999FECF1FBA92BD81BD20BD0FB6F89400
:0EFD1000FA9AF99A0FBE01960895F894FFCF63
:040000033000E000E9
:00000001FF
